:100000000C94B2040C94F9040C94F9040C94F904C3
:100010000C94F9040C94F9040C94F9040C94F9046C
:100020000C94F9040C94F9040C94DA230C94AE2487
:100030000C94691E0C94F9040C94F9040C94F904C2
:100040000C94F9040C94BA190C94F9040C94F90466
:100050000C94DE190C94C01E0C94F9040C94F90451
:100060000C94F9040C94F9040C94F9040C94F9041C
:100070000C94F9040C94F9040C94F9040C94F9040C
:100080000C94F9040C94F9040C94F9040C94F904FC
:100090000C94F9040C94F9040C94F9040C94F904EC
:1000A0000C94F9040C94F9040C94F90429001E0032
:1000B0001F0020002100220023002400250026002C
:1000C00027002D002E002A004C002B0014001A00DF
:1000D0000800150017001C0018000C001200130087
:1000E0002F00300031004A003900040016000700DC
:1000F00009000A000B000D000E000F003300340051
:10010000280000004B00E1001D001B000600190044
:10011000050011001000360037003800E50000002F
:1001200052004E00E000E300E200000000002C005E
:10013000000000000000E600E700E400500051006D
:100140004F0044454255473A2064697361626C65CB
:10015000642E0A0044454255473A20656E61626C40
:1001600065642E0A004F6E6573686F743A20616390
:10017000746976653A2025640A000A0025303258F1
:10018000006B6579626F6172645F7365745F6C6543
:10019000643A20000A002530313662003A200025FA
:1001A000303258000A722F63203031323334353602
:1001B0003738394142434445460A003F00433E2018
:1001C000004C25640A000A092D205374617475736C
:1001D000202D0A686F73745F6B6579626F6172645A
:1001E0005F6C65647328293A20253032580A6B65A4
:1001F00079626F6172645F70726F746F636F6C3A73
:1002000020253032580A6B6579626F6172645F69CC
:10021000646C653A20253032580A6B65796D6170DF
:100220005F636F6E6669672E6E6B726F3A20253062
:1002300032580A74696D65725F7265616433322881
:10024000293A202530386C580A000A092D205665B5
:100250007273696F6E202D0A5649443A2030783106
:10026000303234284E65696C4B68657261292050C4
:1002700049443A20307832303438284C756E613633
:100280003529205645523A203078303030310A42F4
:1002900055494C443A2020284F6374203133203292
:1002A000303231290A4F5054494F4E533A204C5561
:1002B00046412045585452414B455920434F4E53D7
:1002C0004F4C4520434F4D4D414E44204E4B524FD5
:1002D00020343039360A4743433A20382E342E3002
:1002E000204156522D4C4942433A20322E302E3076
:1002F000204156525F415243483A20617672350A96
:10030000000A092D20436F6E736F6C65202D0A451E
:1003100053432F713A09717569740A000A092D2037
:100320004D61676963202D0A443A09446562756727
:10033000204D65737361676520546F67676C650A4C
:10034000583A094D61747269782044656275672076
:100350004D6F646520546F67676C65202D2053686E
:100360006F77206B65797072657373657320696E42
:10037000206D617472697820677269640A4B3A096A
:100380004B6579626F6172642044656275672054C1
:100390006F67676C65202D2053686F77206B6579D8
:1003A0007072657373207265706F72740A4D3A09CA
:1003B0004465627567204D6F75736520546F67677C
:1003C0006C650A563A0956657273696F6E0A533A3C
:1003D000095374617475730A433A09416374697609
:1003E00061746520436F6E736F6C65204D6F64653B
:1003F0000A46312D4631303A0953776974636820D3
:10040000746F204C6179657220302D392028463177
:1004100030203D204C30290A302D393A0953776974
:1004200074636820746F204C6179657220302D39B7
:100430000A47524156453A095377697463682074F4
:100440006F204C6179657220302028616C74657270
:100450006E617465290A423A094A756D7020746F9D
:1004600020426F6F746C6F616465720A4553433A42
:10047000094A756D7020746F20426F6F746C6F61E4
:100480006465722028616C7465726E617465290AF6
:10049000453A095072696E7420454550524F4D20BF
:1004A00053657474696E67730A4253504143453A09
:1004B00009436C65617220454550524F4D0A4E3AD2
:1004C000094E4B524F20546F67676C650A0062619A
:1004D000636B6C696768745F636F6E6669672E72C1
:1004E00061773A20253032580A2E656E61626C655C
:1004F0003A2025750A2E6C6576656C3A2025750ABA
:10050000006B65796D61705F636F6E6669672E72EF
:1005100061773A20253032580A2E737761705F6315
:100520006F6E74726F6C5F636170736C6F636B3A44
:100530002025750A2E636170736C6F636B5F746F37
:100540005F636F6E74726F6C3A2025750A2E737735
:1005500061705F6C63746C5F6C6775693A202575B8
:100560000A2E737761705F7263746C5F726775696E
:100570003A2025750A2E737761705F6C616C745F29
:100580006C6775693A2025750A2E737761705F7202
:10059000616C745F726775693A2025750A2E6E6FFB
:1005A0005F6775693A2025750A2E737761705F67FA
:1005B000726176655F6573633A2025750A2E7377DD
:1005C00061705F6261636B736C6173685F626163CA
:1005D0006B73706163653A2025750A2E6E6B726FBE
:1005E0003A2025750A0064656275675F636F6E6601
:1005F00069672E7261773A20253032580A2E656E6F
:1006000061626C653A2025750A2E6D617472697895
:100610003A2025750A2E6B6579626F6172643A2003
:1006200025750A2E6D6F7573653A2025750A00656C
:1006300065636F6E6669673A0A64656661756C74B6
:100640005F6C617965723A2025750A003F004E4B58
:10065000524F3A206F66660A004E4B524F3A206F57
:100660006E0A000A6D6F7573653A206F66660A0040
:100670000A6D6F7573653A206F6E0A000A6B6579B3
:10068000626F6172643A206F66660A000A6B657970
:10069000626F6172643A206F6E0A000A6D61747253
:1006A00069783A206F66660A000A6D61747269782B
:1006B0003A206F6E0A000A64656275673A206F66B9
:1006C000660A000A64656275673A206F6E0A000A5E
:1006D0000A4A756D70696E6720746F20626F6F745F
:1006E0006C6F616465722E2E2E2000433E20004305
:1006F0006C656172696E6720454550524F4D0A0026
:100700006261636B6C6967687420737465703A200A
:1007100025750A006261636B6C696768742064699F
:100720007361626C650A006261636B6C696768740F
:1007300020656E61626C650A006261636B6C69675B
:10074000687420746F67676C653A2025750A0062CB
:1007500061636B6C6967687420646563726561735B
:10076000653A2025750A006261636B6C696768747D
:1007700020696E6372656173653A2025750A000A07
:10078000002530325820006B6579626F6172645FBA
:100790007265706F72743A200064656C5F6B657986
:1007A0005F6269743A2063616E27742064656C3AF5
:1007B00020253032580A006164645F6B65795F629E
:1007C00069743A2063616E2774206164643A20255D
:1007D0003032580A005B735D004B6579626F61725D
:1007E000642073746172742E0A005B575D005B5362
:1007F0005D005B525D005B445D005B435D000E038A
:100800004C0075006E0061003600350000001403D6
:100810004E00650069006C004B00680065007200C6
:10082000610000000403090409025B00030100A049
:10083000FA0904000001030101000921110100016E
:100840002240000705810308000A09040100010392
:10085000000000092111010001226D00070582033B
:1008600020000A090402000203000000092111010E
:10087000000122220007058303200001070503036E
:10088000200001120100020000000824104820018D
:1008900000010200010631FF0974A101097515006C
:1008A00026FF009520750881020976150026FF00B5
:1008B000952075089102C005010980A101850319E1
:1008C000012AB700150126B700950175108100C0F7
:1008D000050C0901A101850419012AA002150126B0
:1008E000A002950175108100C005010906A10185CE
:1008F00005050719E029E71500250195087501810F
:10090000020507190029EF1500250195F0750181F1
:1009100002050819012905950575019102950175D2
:10092000039101C005010906A101050719E029E7A6
:100930001500250195087501810295017508810151
:100940000507190029FF150026FF00950675088187
:100950000005081901290595057501910295017594
:10096000039101C011241FBECFEFDAE0DEBFCDBF7F
:1009700004B603FE27C080919F029091A002A0912F
:10098000A102B091A2028730904BA740B04BD1F4A6
:1009900010929F021092A0021092A1021092A20245
:1009A00014BE84B7877F84BF0FB6F894A895809152
:1009B0006000886180936000109260000FBEE0E0EC
:1009C000F8E3099511E0A0E0B1E0E2E1FFE402C044
:1009D00005900D92A239B107D9F722E0A2E9B1E062
:1009E00001C01D92AF39B207E1F70E946D160C9459
:1009F00020270C940000FF93EF93E0919201F09177
:100A00009301309709F00995EF91FF910895FC014A
:100A10008591803011F0EFDFFBCF0895FF27E0E2F2
:100A200030E247FF0CC0419597FF09C0EDE26095A9
:100A3000709580959095611D711D811D911D27FFF9
:100A400002C0219530E350E2AA27660F771F881F66
:100A5000991FAA1FA41710F0A41B63955A95A9F714
:100A6000AA3008F0A95FA05DAF93F39561157105F9
:100A70008105910541F7ED3211F4EF93F395F217EB
:100A800018F43F93F395FBCF8F91B5DFFA95E1F71B
:100A90000895E991F9918591803021F0853219F01E
:100AA000AADFF9CF089520E0E89455915532C1F3BB
:100AB000503311F4689455915A3348F4505390F3DD
:100AC000220F022E220F220F200D250FF4CF0EF43D
:100AD000219589919991533619F3533729F153355B
:100AE00059F1BC0188279927E8945C3621F4899153
:100AF000999168945591543639F446EF7EF077FF1A
:100B00000DC08FEF9FEF0AC055374AE039F05835D6
:100B100040E121F0523642E009F00895FF93EF934F
:100B20007DDFEF91FF91B7CFFF93EF93FC018191B0
:100B30008030B9F360DFFBCFFF93EF9368DFF1CF35
:100B4000DF93CF93CDB7DEB72596A3DFCF91DF91AB
:100B5000089581E0089581E008950C94AB0508950F
:100B60000C94AF051F93CF93DF9300D000D00F926A
:100B7000CDB7DEB749835A836B8330919401898165
:100B80009A8131111DC06623B9F02223A9F00E9479
:100B90000C0C182F682F89819A810E94B80B6981EB
:100BA0007A81812F0F900F900F900F900F90DF910F
:100BB000CF911F910C948F120E94E40B182FEFCF4E
:100BC0000E940C0C69817A81EDCFFC01262F4081B7
:100BD00051816281738184810C94B20581E0089512
:100BE000CF93DF93EC0160E00E94E505BE01DF9149
:100BF000CF910C94B0050E9494140E94AE060E94FE
:100C00007F1A0C94B9140C94BC1408950E94610AC4
:100C10000E9405062FEF84E39CE021508040904025
:100C2000E1F700C000000C94E41E0F931F93CF93D4
:100C3000DF938C0161E00E94E505EC01B8010E94A0
:100C4000AD058823F1F1B801CE010E9483198823F4
:100C5000C1F1B801CE010E94FB1A882391F1B801BD
:100C6000CE010E944D1B882361F1B801CE010E9484
:100C7000701C882331F1F8018281882361F0CF3D17
:100C8000FCE5DF07B1F170F4C115ECE5DE07B9F062
:100C9000C130DC45E1F0C801DF91CF911F910F9188
:100CA0000C94A905CC358DE5D80749F1CD35DC0785
:100CB00019F1CB35DD4579F70E940510ECCF0E9484
:100CC000060680E0DF91CF911F910F9108959091DA
:100CD0003F02892F8E7F90FF816080933F0280FFCB
:100CE00005C084E591E00E940705EBCF82E491E026
:100CF000FACF0E946D11E5CF0E94FC0FCCCF0E946D
:100D00000810C9CF829590E09C01220F331F220F5B
:100D1000331F2C7C95958795959587958373282B04
:100D200030E0C901880F991F8A7A35952795257576
:100D3000822B0895CF93DF93D92F0E948206C82F6C
:100D40008D2F0E9482069C2FDF91CF9108950895E8
:100D50000C94A70681E008950C94AA060895CF93F9
:100D6000C82F0E94A8068C2FCF910C94AC06CF936D
:100D7000DF93CDB7DEB72B970FB6F894DEBF0FBE6B
:100D8000CDBF4F83588769877A878B8761110E940F
:100D90002B101E821D8285E0FE013796DE01119622
:100DA00001900D928A95E1F78C819D81892B89F4C0
:100DB00049815A816B817C818D819E810E94180FAF
:100DC0002B960FB6F894DEBF0FBECDBFDF91CF914B
:100DD000089589819A8189238F3F51F3CE0101962D
:100DE0000E94EE058111E4CFEBCFFC01808191815F
:100DF0000C944E0CCF93C82F882309F488C08238F6
:100E0000C1F40E949F1C81FD82C089E30E94B20F41
:100E10000E945B102FEF81EE94E0215080409040C3
:100E2000E1F700C0000089E30E94B90FCF910C9454
:100E30005B108338A1F40E949F1C80FD68C083E58D
:100E40000E94B20F0E945B102FEF81EE94E02150C0
:100E500080409040E1F700C0000083E5E5CF843892
:100E6000A1F40E949F1C82FD52C087E40E94B20F31
:100E70000E945B102FEF81EE94E021508040904063
:100E8000E1F700C0000087E4CFCF8CEF8C0F813AF0
:100E9000B8F48C2F0E94F817811139C06C2F809103
:100EA0000001909101010E94461D882329F08C2F9A
:100EB0000E94B90F0E945B108C2F0E94B20FB6CF18
:100EC00080E28C0F883048F4C77081E001C0880F41
:100ED000CA95EAF70E940E10A9CFEBE5EC0FE330BC
:100EE00040F4F0E0E55CFE4F808190E0CF910C94FF
:100EF000061DC85AC73158F4EC2FF0E0EE0FFF1F63
:100F0000E35FFE4F80819181CF910C941C1DCF91A6
:100F10000895882309F44BC0823871F40E949F1C05
:100F200081FF45C089E30E94B20F0E945B1089E3F4
:100F30000E94B90F0C945B10833859F40E949F1CD7
:100F400080FF35C083E50E94B20F0E945B1083E5ED
:100F5000EFCF843859F40E949F1C82FF28C087E499
:100F60000E94B20F0E945B1087E4E2CF9CEF980FC3
:100F7000913AF0F290E2980F983050F4877091E037
:100F800001C0990F8A95EAF7892F0E941410D2CFD9
:100F90009BE5980F933020F490E080E00C94061DC0
:100FA000885A873120F490E080E00C941C1D08954D
:100FB0001F93CF93DF93182FEB010E94FA0620971F
:100FC00031F4812FDF91CF911F910C9489078FE924
:100FD0009FE00197F1F700C000002197F0CF70E08B
:100FE00060E0893311F460E570E00C94D807882341
:100FF00021F00E940E100C945B100895882321F0BC
:101000000E9414100C945B100895BF92CF92DF924F
:10101000EF92FF920F931F93CF93DF936C01D62F24
:10102000C72FFC011281058102950F700E94D00F1D
:10103000E82E8823A1F0E12E112389F08C2F807FE8
:10104000803429F080E28D0FE12C883040F082E07E
:101050000E94AC100E94D00F91E0E82EE926BC2E31
:10106000B2949FE0B922EB2DF0E0EE5DF84D0C94C8
:10107000B1260C2F0F70C07F11F00295007F112355
:10108000A9F0002359F080E28D0F883010F0D111C3
:1010900009C0802F0E940E100E945B108D2F0E94AD
:1010A000FA0614C0802F0E941E10F6CF8D2F0E94CA
:1010B0008907002359F080E28D0F883010F0D1119C
:1010C0002CC0802F0E9414100E945B102B2D2850E2
:1010D000330B2430310520F40E949F1C0E94AF0680
:1010E000EE2009F493C10E94CC0F80FD8FC1F60160
:1010F00012820E94C60F0E941C0BC6010E94270A82
:101100000E94C60FDF91CF911F910F91FF90EF903A
:10111000DF90CF90BF900C943D0B802F0E94241045
:10112000D3CFFC2FFF70FF2EC07FC03219F0F29496
:1011300080EFF822DD2369F0D13049F1112391F1DC
:10114000002351F1F601858180FFA8CF8F70858340
:1011500023C0112381F0011106C00E943E108F2987
:101160000E94F707B3CF0130C1F70E943E108F29CC
:101170000E944410ABCF011106C00E9451108F2D68
:101180000E94FE07A3CF013009F4A0CFF6CF1123B0
:1011900029F0063008F09ACF8F2DE2CF053008F005
:1011A00095CFEDCF002359F3D93349F4FFEF27EE64
:1011B00033E0F15020403040E1F700C000008D2FB7
:1011C0000E94890783CF8C2F86958695837069F05E
:1011D000813009F07BCF8D2F9C2F9370111102C0AD
:1011E00090E080E00E941C1D71CF8D2F9C2F93708A
:1011F000111102C090E080E00E94061D67CF8C2F85
:10120000837009F041C0111161CF4D2F4295469571
:101210004770440F440F0D2F0F7010E030E020E0B6
:10122000042E04C0000F111F221F331F0A94D2F78F
:1012300060E070E0CB01D4FF0FC06FE070E080E0B1
:1012400090E004C0660F771F881F991F4A95D2F758
:101250006095709580959095C695C695C370602BE6
:10126000712B822B932BC23049F058F4C13019F006
:101270000E94CE0A2BCF0E94BC0A28CF0E94E00A0F
:1012800025CF0E94BA0A22CF8695112311F08C2F08
:101290008170882309F41ACF4D2F429546954770E7
:1012A000440F440F0D2F0F7010E030E020E0042EAB
:1012B00004C0000F111F221F331F0A94D2F760E0F1
:1012C00070E0CB01D4FF0FC06FE070E080E090E0F1
:1012D00004C0660F771F881F991F4A95D2F7609543
:1012E000709580959095C695C695C370602B712BAF
:1012F000822B932BC23049F058F4C13019F00E9470
:10130000930BE4CE0E94810BE1CE0E94A50BDECEB2
:101310000E94F60ADBCECF70112329F08C2F0E9499
:101320001C0B8D2F1DCF8D2F0E94FE078C2F0E942E
:101330003D0BCCCED23F89F160F4D03FC9F0D13F14
:1013400029F1112309F442C00111A8CE8C2F8F710D
:1013500021C0D33F39F1D43FA1F7112369F1CF71F7
:101360008C2F0E941C0B63E08C2F0E949110AECE3C
:10137000112341F0053008F0A9CE8C2F8F710E9407
:10138000600BA4CE063008F0A1CEF7CF8C2F8F7162
:10139000112369F20E941C0B99CE8C2F8F7111239F
:1013A000C9F3C5CF112329F08C2F8F710E94070B31
:1013B0008DCE0E94020B8ACE81E00E94AC100230DA
:1013C00008F484CE82E00E94AC1080CE002359F055
:1013D000D93309F0F4CE8FEF97EEE3E081509040DF
:1013E000E040E1F7EACE8C2F8F71A1CF4C2F4F70E8
:1013F0006D2FC6010E948B120E947C0C67CE4C2F71
:101400004F706D2FC6010E948E1260CEDF91CF917A
:101410001F910F91FF90EF90DF90CF90BF900895B4
:101420000F931F93CF93DF93EC01688179818A81B9
:101430000E94580C8C010E94B70B0E94B90AB80197
:10144000CE01DF91CF911F910F910C940508CF939E
:10145000DF93EC018B819C81892B29F08881998114
:1014600089238F3F59F4DF91CF910895CE010E94D7
:10147000100ACE01DF91CF910C94F005CE010E94AD
:1014800015068111F3CF0E94D00F882361F38A8162
:10149000882349F382E0DF91CF910C94AC1090E067
:1014A00080E00E94061D90E080E00E941C1D0E94CA
:1014B0002B100E943B100C945B100E94C00F0C94E8
:1014C0004F0A0E941B100C945D0AE92FE295EF7001
:1014D000E250EE3070F4F0E0EE5CF84D0C94B12682
:1014E000803F19F020F4883E20F481E00895843F85
:1014F000E1F380E00895883EC0F3813FD1F7F5CF56
:1015000093FB882780F90895FC01808191810E94D6
:101510004E0C0C94650ACF93DF9300D000D00F924D
:10152000CDB7DEB70F900F900F900F900F90DF9117
:10153000CF910895CF93DF9300D000D000D0CDB7E6
:10154000DEB726960FB6F894DEBF0FBECDBFDF9193
:10155000CF91089508950C94AA0A0E94AB0A609353
:10156000CB017093CC018093CD019093CE010C946C
:101570004F0A08950C94AD0A0F931F930091CB016D
:101580001091CC012091CD013091CE01602B712BB7
:10159000822B932B1F910F910C94AD0A0F931F93E5
:1015A0000091CB011091CC012091CD013091CE0161
:1015B00060237123822393231F910F910C94AD0A12
:1015C0000F931F930091CB011091CC012091CD017D
:1015D0003091CE0160277127822793271F910F91A9
:1015E0000C94AD0A0C94AA0A0C94F20A0E94F40A14
:1015F0006093C7017093C8018093C9019093CA0199
:101600000C944F0A60E070E0CB010C94F60A0F9343
:101610001F9341E050E060E070E08A019B0104C04C
:10162000000F111F221F331F8A95D2F7C901B8017D
:101630001F910F910C94F60A0F931F9341E050E015
:1016400060E070E004C0440F551F661F771F8A9545
:10165000D2F78091C7019091C801A091C901B091C2
:10166000CA018A019B01082B192B2A2B3B2BC9018C
:10167000B8011F910F910C94F60A0F931F9341E04C
:1016800050E060E070E004C0440F551F661F771FF4
:101690008A95D2F7CB01BA016095709580959095A7
:1016A0000091C7011091C8012091C9013091CA0170
:1016B00060237123822393231F910F910C94F60AC8
:1016C0000F931F9341E050E060E070E004C0440FCE
:1016D000551F661F771F8A95D2F78091C701909199
:1016E000C801A091C901B091CA018A019B010827D4
:1016F00019272A273B27C901B8011F910F910C9484
:10170000F60A0F931F930091C7011091C801209111
:10171000C9013091CA01602B712B822B932B1F9131
:101720000F910C94F60A0F931F930091C70110912B
:10173000C8012091C9013091CA016023712382231D
:1017400093231F910F910C94F60A0F931F9300910E
:10175000C7011091C8012091C9013091CA016027C9
:101760007127822793271F910F910C94F60A0895F1
:101770002FE0929F800D1124982F977041E001C0B7
:10178000440F9A95EAF786958695869595E0899F08
:10179000F0011124EB56FE4F90E080E070E0519193
:1017A000DF0111979B01082E02C0369527950A94F8
:1017B000E2F7217021952527242325272C930196D4
:1017C0008530910561F708952FE0929F800D1124D7
:1017D000982F977086958695869525E0829FF001D3
:1017E0001124EB56FE4F50E040E080E0219130E0C4
:1017F000092E02C0369527950A94E2F72170332707
:10180000042E01C0220F0A94EAF7822B4F5F5F4F2C
:101810004530510559F70895BF92CF92DF92EF926C
:10182000FF920F931F93CF93DF938C01C090C7015A
:10183000D090C801E090C901F090CA018091CB011D
:101840009091CC01A091CD01B091CE01C82AD92AA6
:10185000EA2AFB2ACFE1D0E0BC2ED701C6010C2E2C
:1018600004C0B695A795979587950A94D2F780FD01
:101870000EC0219788F7B12C8B2DDF91CF911F914E
:101880000F91FF90EF90DF90CF90BF900895B80137
:101890008C2F0E94B513019761F3EECFCF93DF93A6
:1018A000EC010E940C0CBE01DF91CF910C94B5139A
:1018B0001F93CF93DF93EB0190919401992331F023
:1018C000CB01DF91CF911F910C944E0C882379F0BE
:1018D000CB010E940C0C182F682FCE010E94B80B70
:1018E000BE01812FDF91CF911F910C94B513CB01D5
:1018F0000E94E40B182FF4CFEF92FF920F931F93E7
:10190000CF93DF938C01892B81F0F12CEE24E394AB
:10191000E8012196F8018491843770F4843008F04E
:101920005FC08130B1F08230A1F1DF91CF911F9182
:101930000F91FF90EF900895853709F44CC008F49B
:101940003DC09CE7980F903780F78F770E948907FA
:1019500049C00E5F1F4FFE01849190E2980F9830AE
:1019600060F48770FE2D01C0FF0F8A95EAF78F2F74
:101970000E942E100E945B1002C00E94FA068F2D5A
:10198000815030F2EFE9FFE03197F1F700C000003D
:10199000F7CF0E5F1F4FFE01849190E2980F9830B1
:1019A00050F48770FE2D01C0FF0F8A95EAF78F2F44
:1019B0000E943410DFCF0E948907E1CF0E5F1F4FD6
:1019C000FE01C491C150D8F28FE99FE00197F1F771
:1019D00000C00000F7CF0E5F1F4FFE01F490CFCF85
:1019E0000E94FA068E01CBCF1F93CF93DF93C09155
:1019F000CF0116E08091D0018C1304C0DF91CF910C
:101A00001F910895D0E01C9FF0011D9FF00D11243F
:101A1000EF52FE4F408151816281738184819581B3
:101A20000E949A0A2196C770E5CF40910102509119
:101A3000020260910302709104028091050290916C
:101A400006020C949A0A1F93CF93DF9380910602AB
:101A5000807FA9F480910302882389F08091CF01CF
:101A6000C091D0016091010270910202A091040224
:101A7000B0910502D62FD72316E0C81304C0DF911A
:101A8000CF911F91089590E0109711F0DF3F19F466
:101A900001968770F2CF189F9001199F300D112485
:101AA000F901EF52FE4F41814713F2CF40814613B7
:101AB000EFCF42814111ECCF438154814A1B5B0B34
:101AC000483C510528F7809106028F708061809311
:101AD0000602F901EA52FE4F80818F708061808397
:101AE00081E092E00E94270ADF91CF911F910C9430
:101AF000F40CAF92BF92CF92DF92EF92FF920F93CE
:101B00001F93CF93DF93CDB7DEB761970FB6F894ED
:101B1000DEBF0FBECDBF8C0185E0F801DE011D9652
:101B200001900D928A95E1F7F801E28081E0C82EDC
:101B300082E0D82E60910402709105026115710552
:101B400009F45AC19091010220910202892F822347
:101B50008F3F09F451C140815181A380B480F0903E
:101B60000302F501E61BF70BFF2009F4F6C0809194
:101B70000602382F307FE83CF10508F0AFC0311184
:101B800079C0FE2C251323C0941321C0E1101FC07F
:101B90008F708061809306020E94150DC6010E941D
:101BA000270A80910602F80185838F2D61960FB672
:101BB000F894DEBF0FBECDBFDF91CF911F910F9183
:101BC000FF90EF90DF90CF90BF90AF900895AB283B
:101BD00029F0842F85238F3F09F027C180E0F82F5B
:101BE000F170DF2E80FF3CC08091CF012091D001A9
:101BF00036E0821315C04D875E878D859E850E94D5
:101C00004E0C292F22952F702230F0F0243018F539
:101C10009F70F1F0F8019581907FD1F4D12C1EC016
:101C200090E0389FF001399FF00D1124EF52FE4FE4
:101C30006181651306C06081641303C06281E6128E
:101C40000FC001968770D5CF9F7011F0882331F3B4
:101C5000805E883018F3C8010E94270AFD2CA5CFAA
:101C6000EE2009F4A2CF80910602816080930602E3
:101C7000F12C9BCF251306C0941304C0F801EE206D
:101C800009F487C0C8010E94840A882319F1EE2054
:101C900009F180910602803270F0209101023091AA
:101CA000020238872F831986BB86AA868C87CE01CD
:101CB00007960E94270A86E0F801A1E0B2E00190B1
:101CC0000D928A95E1F70E94230D0E94150DFF24C5
:101CD000F3946BCFC8010E94270AF9CF311113C0CA
:101CE0007A2DB98AA88A6E2D89890E948B0A81E093
:101CF00092E00E94270A86E0F60111928A95E9F7A0
:101D00000E94150DB5CF25130FC094130DC0E1101F
:101D10000BC0F8018583C8010E94270A86E0F601FE
:101D200011928A95E9F741CFC8010E94840A88235D
:101D300089F2EE2079F280910602803208F4BBCF5E
:101D400020910102309102023A8329831B82BD82D5
:101D5000AC828E83CE010196ACCFE83CF10508F051
:101D60003EC0FE2CEE2009F4B5CF25132AC09413F3
:101D700028C08091060280FD1BC0982F907FC1F083
:101D8000F8018583903F31F0982F907F905F8F709E
:101D9000892B8583C8010E94270A86E0F801A1E00B
:101DA000B2E001900D928A95E1F70E94150DFDCEEB
:101DB00086E0F801A1E0B2E001900D928A95E1F78A
:101DC000F4CEC8010E94840A811175CF8091060269
:101DD000816080930602C8010E94270AE6CE7A2D10
:101DE000B98AA88A6E2D89890E948B0A86E0F6013D
:101DF00011928A95E9F7D9CFEE2009F46BCFC8018B
:101E00000E94840AF82E882309F464CF86E0F80142
:101E1000A1E0B2E001900D928A95E1F781E092E0B5
:101E20000E94F5060E94230DC0CF81E08E25D7CEFB
:101E30001F93CF93DF93CDB7DEB72C970FB6F894EF
:101E4000DEBF0FBECDBF4F83588769877A878B87E8
:101E50009C87CE0107960E94790D882369F08A85B8
:101E60009B85892B39F04F815885842F85238F3F9F
:101E700009F071C016E05FC086E0FE013796DE0112
:101E8000119601900D928A95E1F78A859B85892BA1
:101E900089F38F81988589238F3F61F32091D00149
:101EA00030E0C9010196877099274091CF0148170A
:101EB000190671F40E94610A1092D0011092CF01AC
:101EC00086E0E1E0F2E0DF011D928A95E9F7D2CFEA
:101ED00096E0929FD001939FB00D1124AF52BE4F58
:101EE000FE01319601900D929A95E1F78093D00111
:101EF0000E94F40CBFCF819FC00111248F529E4FCE
:101F00000E94790D8823E9F0E091CF011E9FF00136
:101F10001124EF52FE4F408151816281738184818F
:101F200095810E949A0A8091CF0190E00196877076
:101F300099278093CF018091CF019091D00189138F
:101F4000DACF2C960FB6F894DEBF0FBECDBFDF916F
:101F5000CF911F91089569857A858B859C850E9414
:101F60009A0A88CF682F80910001909101010C940A
:101F7000E81D682F80910001909101010C94F31DE0
:101F800080910001909101010C94FE1D8091070247
:101F900085958595859508958091070287700895A8
:101FA00090910702977081E009F480E00895CF9343
:101FB000C82F8091780282FB992790F99C17D1F065
:101FC000C0FB82F980937802809177029091780229
:101FD0000E94E91080913F0280FF0CC01F92CF93B6
:101FE00085E691E09F938F930E94A0050F900F903C
:101FF0000F900F90CF9108958091780282FB8827EF
:1020000080F991E089270C94D70F81E00C94D70FC9
:1020100080E00C94D70F80912B02089590912B02B1
:10202000892B80932B020895809590912B02982301
:1020300090932B02089510922B02089590912A02FA
:10204000892B80932A020895809590912A029823E3
:1020500090932A02089510922A02089590912902DD
:10206000892B8093290208958095909129029823C5
:1020700090932902089510922902089580910802F0
:10208000089508950C9441109091780292FD08C033
:1020900090910802981721F0809308020C94421046
:1020A000089580910802882329F01092080280E0A8
:1020B0000C9442100895E0910001F091010180918B
:1020C0002B028083E0910001F091010180819091C9
:1020D0002A02892B8083E0910001F0910101808127
:1020E00090912902892B808390910802992381F095
:1020F000E0910001F09101018081892B8083809122
:102100000001909101010E94321D81110E94511025
:1021100080910001909101010C94AB1C08950C94E6
:102120008E109091780292FD10C098E0899F9001E6
:102130001124622B609307020E941C0B80910702FE
:102140008595859585950C948F100C941C0B109299
:10215000070280E00C948F109091070280958923EC
:1021600080930702282F277039F4282F082E000C9F
:10217000330B9217130621F49091780292FF07C057
:102180008595859585950E943D0B0C94A710089523
:1021900090E080E00E94E62621E0893E9E4F09F013
:1021A00020E0822F089582E090E00C94DE2683E008
:1021B00090E00C94DE26CF9384E090E00E94DE262F
:1021C000C82F82E290E00E94DE26982F8C2FCF91BC
:1021D0000895CF93C92F682F84E090E00E94EC26E9
:1021E0006C2F82E290E0CF910C94EC26AB01BC0105
:1021F0008FE090E00C94FE26AB01BC0183E190E0FF
:102200000C94FE2660E070E0CB010C94FC1060E0C2
:1022100070E0CB010E94F6100C94021169EE7EEF83
:1022200090E080E00E940A2760E082E090E00E9457
:10223000EC2660E083E090E00E94EC261092CB0157
:102240001092CC011092CD011092CE0160E084E09A
:1022500090E00E94EC2660E082E290E00E94EC2692
:1022600060E085E090E00E94EC2660E086E090E08F
:102270000E94EC266FEF87E090E00E94EC2640E0A1
:1022800050E0BA0188E090E00E94FE2660E08DE018
:1022900090E00E94EC2640E050E0BA0188E190E036
:1022A0000E94FE2660E087E190E00E94EC2640E07C
:1022B00050E0BA018CE190E00E94FE2670E060E000
:1022C00080E290E00E940A2740E050E0BA0188E1F5
:1022D00090E00E94FE260C9407110C940E11682FBA
:1022E0008EE090E00C94EC260E94A51E60933B02C9
:1022F00070933C0280933D0290933E0260933702BC
:10230000709338028093390290933A02089585B70A
:10231000806885BF85B7806885BF08950895089552
:102320000C948E1108950C9492110E94871180EBE9
:1023300090E20E94081F0E948F110C94901181E07E
:1023400008950C949F11089508950E94A3110C9470
:10235000A4110E94901E0E94C0150E944C180C945B
:102360009311CF93C82F80913F0282FF1EC080FF40
:102370001CC081E891E00E94070580913F0280FF28
:1023800014C01F92CF938CE791E09F938F930E948C
:10239000A00580913F020F900F900F900F9080FF4B
:1023A00004C08AE791E00E9407058C2FCF910C941E
:1023B000AF068F929F92AF92BF92CF92DF92EF9231
:1023C000FF920F931F93CF93DF93CDB7DEB72A977A
:1023D0000FB6F894DEBF0FBECDBF0E94E815811185
:1023E0000E9474115DE2852E52E0952E10E000E00F
:1023F000A02E802F0E94BE146C01F401E190F19098
:102400004F01E816F90609F45CC080913F0281FD96
:102410000E94C714C7018C259D25B12CEE24E3949E
:10242000F12C9C012E213F21232B09F444C00E9452
:10243000A1118823A9F0BE82AF82CE20DF2081E0E7
:10244000CD2809F480E088870E94991E8160782F4A
:102450009A8789874E815F8168858A850E94B70641
:10246000000F111FF801E35DFD4F80819181E82687
:10247000F926F182E0820E947E1A0E949F1C9091B0
:102480002C028917A9F10E949F1C80932C022A9686
:102490000FB6F894DEBF0FBECDBFDF91CF911F9175
:1024A0000F91FF90EF90DF90CF90BF90AF909F90F3
:1024B0008F900C94B111B394EE0CFF1CFFE0BF128F
:1024C000B0CF0F5F1F4F0530110509F091CF8FEF8F
:1024D00089838A831B820E94991E8160782F9D8345
:1024E0008C8349815A816B818D810E94B706C3CF4D
:1024F0002A960FB6F894DEBF0FBECDBFDF91CF9105
:102500001F910F91FF90EF90DF90CF90BF90AF9011
:102510009F908F90089590E080E008950895972F00
:1025200070E02FE0929F600D711D1124FB019BE470
:10253000899FE00DF11D1124EE0FFF1FE455FF4FA1
:10254000859194910895FC01EE0FFF1FEC56FE4F0C
:10255000859194910895CF93DF930E94B913EC0174
:10256000811520E5920708F041C0811530E49307FA
:1025700008F0B4C0803E910518F5803C910508F044
:102580009DC0883A910570F4853A910508F08EC097
:1025900081309105F9F00097E9F00497D8F4D0E084
:1025A000C0E018C08F3B9105D0F7C85AD0E0CC0FDF
:1025B000DD1FC25CDE4F0990D881C02DD4640AC0F3
:1025C0008115904258F4C11581E0D80718F4C83E2F
:1025D000D10528F7CE01DF91CF910895C11590E381
:1025E000D90708F071C0CE019F706AC0811525E53A
:1025F000920758F5811534E5930708F09EC08115C0
:1026000042E5940750F4C11581E5D80708F469C084
:10261000DC2FCC27C16FD06ADDCF982F9695969589
:102620009E0123703327C115D34508F077C0C1E060
:10263000D0E002C0CC0FDD1F2A95E2F720E2929F86
:10264000C0011124C82BD92B67C0C11589E5D80753
:10265000A8F4C11598E5D90708F074C0C11526E59E
:10266000D20708F09CCF8C2F0E945014C82FD0E0C6
:10267000DC2FCC27CC27DF71D062ACCFC1153AE577
:10268000D30708F464C0CE0190568115904208F03B
:1026900086CF8D2F8F710E94501490E0982F88273D
:1026A00088279F719C012C2BE901E6CFC55AD0E009
:1026B000C459DE4FC881D0E0D0648CCF805C9109D2
:1026C0000E94A312EC0186CFCE019927D3FF03C04D
:1026D000EC01D86C7FCFEC01D06C7CCFDF70D06A7E
:1026E00079CFCE01E4E096958795EA95E1F783707E
:1026F0002C2F26952695237090E2299F9001112476
:10270000382B8C2F8370C1E0D0E002C0CC0FDD1FCE
:102710008A95E2F7C22BD32BDC685CCFC1E0D0E016
:1027200002C0CC0FDD1F2A95E2F730E2939FC00173
:102730001124C82BD92BDA684DCFD82FCC27C46FE2
:10274000D06A48CFDC2FCC27C06FD06A43CF8C2F04
:102750008F700E94501434E0D695C7953A95E1F7F2
:10276000CF709C2FEC01D06935CF0E948F120C9452
:10277000AB1282389105B1F1B0F48133910509F4BF
:1027800075C048F48932910509F469C08A3291050F
:1027900009F473C008958533910509F459C089334C
:1027A000910501F10895833E9105A9F138F4803E29
:1027B0009105F9F0823E910549F10895863E910513
:1027C000A9F1873E9105C9F1843E910519F5209143
:1027D000780221FF1FC08091770284FD14C087EE2C
:1027E00090E00895209177022370A1F080EE90E0B0
:1027F00008952091770220FD47C03091780230FF84
:1028000009C024FF44C090E080E004C0209177021A
:1028100022FDF7CF08952091770222FD3BC0309131
:10282000780230FDE3CF24FFF5CFEDCF2091770282
:1028300023FFF0CF24FDE7CFD2CF2091770223FDF5
:102840002CC03091780231FFEECF84EE90E00895F5
:102850002091770225FFDECF89E290E00895209154
:10286000770225FFD7CF85E390E008952091770286
:1028700026FFD0CF8AE290E008952091770226FFCC
:10288000C9CF81E390E0089589E390E0089583EE55
:1028900090E0089582EE90E0089586EE90E008952D
:1028A0009091770292FF06C0282F28712830F9F402
:1028B000877F846093FF06C0282F28712831F1F4A8
:1028C000877E84612091780220FF06C0382F3871FE
:1028D0003830D9F4877F816021FF06C0282F287106
:1028E0002831D1F4877E816194FD877E0895282F59
:1028F00024712430F9F68B7F8860DCCF282F247177
:10290000243101F78B7E8861DDCF382F3171313072
:1029100019F78E7F8860E0CF282F2171213121F7B0
:102920008E7E8861E1CF08950E94C810811102C097
:102930000E946D110E94D31080933F020E94DB1011
:1029400090937802809377020E9493140E94D7108C
:10295000682F70E090E080E00E94BA0A6091C701A1
:102960007091C8018091C9019091CA010C94F40A38
:1029700008950C94B81408950C94BB14E82FF0E05B
:10298000EE0FFF1FED57FD4F808191810895CF928B
:10299000DF92EF92FF920F931F93CF93DF9384EA1E
:1029A00091E00E94070583E8E82E82E0F82ED0E04F
:1029B000C0E09FE9C92E91E0D92E06E911E0DF932E
:1029C000CF93DF92CF920E94A0058CE991E00E9404
:1029D0000705F701819191917F010E949A069F93CB
:1029E0008F931F930F930E94A00584E991E00E94AA
:1029F000070521968DB79EB708960FB6F8949EBF2F
:102A00000FBE8DBFC530D105D1F6DF91CF911F919B
:102A10000F91FF90EF90DF90CF90089580EA8A9514
:102A2000F1F7089500C008950C940E15F894E82F5E
:102A3000E295EF70F0E031A1282F2F7081E090E057
:102A400001C0880F2A95EAF7982F9095932391A3B8
:102A500092A1892B82A378940895CF93DF93CEE738
:102A6000D1E089918F3F11F00E94161581E0C338A3
:102A7000D807B9F7CFE6D1E089918F3F11F00E94D6
:102A8000161581E0CE37D807B9F7DF91CF910895B9
:102A9000AF92BF92CF92DF92EF92FF920F931F936C
:102AA000CF93DF938C01B62EC62FD0E0CE01825893
:102AB0009E4F7C01FC0120812F3F09F453C0F89404
:102AC000E22FE295EF70F0E031A12F7081E090E00D
:102AD00001C0880F2A95EAF7932F982B91A392A112
:102AE0008095892382A378940E941215EFE6F1E085
:102AF00030E020E0D12CC12C41E050E081918F3FAB
:102B0000E1F1A82FA295AF70B0E090966C9170E0C3
:102B10008F7002C0759567958A95E2F760FD2DC0AC
:102B2000CA01022E02C0880F991F0A94E2F7C82A30
:102B3000D92A2F5F3F4F2F30310501F7F7018081F0
:102B40008F3F11F00E94161561E0C114D10409F401
:102B500060E08B2D0E941415CC0FDD1FC00FD11F1C
:102B6000D982C882DF91CF911F910F91FF90EF9092
:102B7000DF90CF90BF90AF90089590E080E0D7CFE6
:102B80000E942D15A9E7B2E011961C921E92E3E86F
:102B9000F2E01182108213961C921E9212971382F9
:102BA000128215961C921E92149715821482179603
:102BB0001C921E9216971782168219961C921E92CC
:102BC00018971186108685E00E9433160C94FB0539
:102BD000FF920F931F93CF93DF93CDB7DEB72A9762
:102BE0000FB6F894DEBF0FBECDBF8E010F5F1F4F33
:102BF0008AE0F80111928A95E9F7F12C6F2DC8014E
:102C00000E944815F394F5E0FF12F8CF4AE050E037
:102C1000B80189E792E00E94D126FF24F39400973F
:102C200009F4F12C892B41F08AE0F801A9E7B2E020
:102C300001900D928A95E1F72F2D45E063E872E04F
:102C400089E792E00E9434160E9403068F2D2A968F
:102C50000FB6F894DEBF0FBECDBFDF91CF911F91AD
:102C60000F91FF9008950895FF920F931F93CF93B4
:102C7000DF93F82E092F162FD72FC42F222349F0C8
:102C800081E0809342020E94991E909341028093BA
:102C90004002809142028823A1F0809140029091ED
:102CA00041020E94B11E059760F0EF2DF02FA12F79
:102CB000BD2F90E080E0D0E08C179D0744F010928B
:102CC0004202DF91CF911F910F91FF9008952191C2
:102CD00031912D933D930196EFCF0E94101E0E94DB
:102CE00012210E942B210E9441210E94A511FBCF9D
:102CF000CF93C82F1F928F9381EC91E09F938F9376
:102D00000E94A00561E070E080E090E004C0660FE2
:102D1000771F881F991FCA95D2F70E94BA0A0F9091
:102D20000F900F900F90CF910C94610ADF92EF9269
:102D3000FF920F931F93CF93DF93EBEFE80FEF33E7
:102D400008F04CC1F0E0E05CF84D0C94B1260E9414
:102D5000D7101F928F938FE296E09F938F930E94DC
:102D6000A0050E94D31083FB992790F91F929F938F
:102D700082FB992790F91F929F9381FB992790F9E5
:102D80001F929F93982F91701F929F931F928F93E2
:102D900086EE95E09F938F930E94A0050E94DB1022
:102DA00087FB222720F91F922F9386FB222720F9E9
:102DB0001F922F9385FB222720F91F922F9384FBCC
:102DC000222720F91F922F9383FB222720F91F929D
:102DD0002F9382FB222720F91F922F9391FB22270A
:102DE00020F91F922F93292F21701F922F9381FB7F
:102DF000222720F91F922F93282F21701F922F93A3
:102E00009F938F9381E095E09F938F930E94A005FD
:102E10008DB79EB788960FB6F8949EBF0FBE8DBF34
:102E20000E943B18982F9695969596951F929F9382
:102E3000982F91701F929F931F928F938EEC94E026
:102E40009F938F930E94A0058DB79EB708960FB6EB
:102E5000F8949EBF0FBE8DBF81E01CC08FEE96E040
:102E60000E9407050E946D11F7CF8CE193E00E944C
:102E70000705F2CF80913F02807F80933F0281E07F
:102E800093E00E9407058BEE96E00E94070581E023
:102E900080934302DF91CF911F910F91FF90EF90AC
:102EA000DF9008958FEC96E00E9407050E940606C9
:102EB000D3CF90913F02892F8E7F90FF81608093C6
:102EC0003F0280FF03C083EC96E0D1CF86EB96E013
:102ED0000E94070580913F02817F80933F02BCCF13
:102EE00090913F02892F8D7F91FF826080933F02F6
:102EF00081FF08C089EA96E00E94070580913F02A1
:102F00008160EBCF8BE996E0B2CF90913F02892FA1
:102F10008B7F92FF846080933F0282FF03C08CE826
:102F200096E0EACF8CE796E0A2CF90913F02892FFE
:102F3000877F93FF886080933F0283FF03C080E711
:102F400096E0DACF83E696E092CF8AE492E08FCFE4
:102F50000E94A51E062FF72EE82ED92EC0917702CB
:102F6000C7FBCC27C0F910917602D0910C010E94CA
:102F70009F1CDF92EF92FF920F931F92CF931F92AD
:102F80001F931F92DF931F928F9386EC91E09F9384
:102F90008F930E94A0058DB79EB70E960FB6F8943A
:102FA0009EBF0FBE8DBF58CF0E94610A90917702DD
:102FB000892F97FB87F980588093770287FF03C09A
:102FC00089E596E054CF8EE496E051CF80E00E94F0
:102FD000781642CF8953FBCF8D51F9CF8CE496E020
:102FE0000E94070580E056CF80E008950C94F41706
:102FF000CF93C82F80914302882331F0813099F01C
:103000001092430280E00DC00E940B108232D1F773
:103010008C2F0E94F417811119C08C2F0E949616D4
:103020008170CF9108950E940B10823289F38C2F0A
:103030000E94F617811119C0C431C9F050F4CB3089
:1030400061F08BEB91E00E94070513C081E090E0F6
:10305000E7CFC93261F0C833A1F781E093E00E9465
:1030600007058DEB91E00E94070581E0D9CF109212
:10307000430280E0D5CF86E090E00C94DE26682FF6
:1030800086E090E00C94EC26EDE8F2E0808184701C
:10309000896180830C943F180E94C810811104C07C
:1030A0000E946D110E9444180E943B1880938D026B
:1030B000803220F08770886180938D0290918D021C
:1030C000892F817090FF04C0892F869586958695FB
:1030D0000C94091A80918D02982F96959695969545
:1030E000933040F49F5F990F990F990F8770892B48
:1030F00080938D0280918D02816080938D020E9469
:103100003F1880913F0280FF11C080918D0286950B
:10311000869586951F928F9387E697E09F938F936E
:103120000E94A0050F900F900F900F9080918D023C
:103130008695869586950C94091A80918D02982F14
:10314000987F79F0885080938D02887F91E009F410
:1031500090E080918D0290FB80F980938D020E9417
:103160003F1880913F0280FF11C080918D028695AB
:10317000869586951F928F938FE497E09F938F9308
:103180000E94A0050F900F900F900F9080918D02DC
:103190008695869586950C94091A80918D0280FDFE
:1031A0001FC0816080938D02813019F489E0809383
:1031B0008D0280918D020E943F1880913F0280FF16
:1031C00008C087E297E09F938F930E94A0050F901D
:1031D0000F9080918D028695869586950C94091A9C
:1031E000089580918D0280FF14C08E7F80938D02A0
:1031F0000E943F1880913F0280FF08C084E197E061
:103200009F938F930E94A0050F900F9080E00C94E5
:10321000091A0895CF93C0918D02C17080913F0229
:1032200080FF0CC01F92CF9389E397E09F938F9309
:103230000E94A0050F900F900F900F90CC2319F0D3
:10324000CF910C94F118CF910C94CD1890918D02E0
:10325000892F8695869586958F5F8F7197708430BC
:1032600080F5880F880F880F892B80938D028091BD
:103270008D02887F91E009F490E080918D0290FBAF
:1032800080F980938D020E943F1880913F0280FF59
:1032900011C080918D028695869586951F928F9399
:1032A00080E097E09F938F930E94A0050F900F906E
:1032B0000F900F9080918D028695869586950C943F
:1032C000091A90938D02D3CF843008F083E0909157
:1032D0008D029770282F220F220F220F922B90938E
:1032E0008D02987F21E009F420E090918D0220FB6F
:1032F00090F990938D020C94091A0E9464198091A0
:103300008D020C943F189C01FB018281882349F1B6
:103310002E3BFCE53F07C9F040F42C3BECE53E07B3
:1033200069F02D3B3C4579F00895203C9CE5390738
:1033300091F070F0213C3C4589F0089583E00E94B3
:103340007D1980E0089580E0FACF0E949D18F9CFA2
:103350000E946A18F6CF0E940A19F3CF0E9426191C
:10336000F0CF81E00895509A589A0895589808959A
:10337000589A08951F920F920FB60F9211242F930F
:103380003F934F935F936F937F938F939F93AF93ED
:10339000BF93EF93FF930E94B819FF91EF91BF91F4
:1033A000AF919F918F917F916F915F914F913F91DD
:1033B0002F910F900FBE0F901F9018951F920F9294
:1033C0000FB60F9211242F933F934F935F936F93F8
:1033D0007F938F939F93AF93BF93EF93FF938091CE
:1033E0008800909189008130914010F00E94B619B8
:1033F000FF91EF91BF91AF919F918F917F916F91CD
:103400005F914F913F912F910F900FBE0F901F90A2
:103410001895CF92DF92EF92FF92CF93C82F84300E
:1034200098F5811132C08091880090918900892B94
:1034300051F080916F008D7F80936F0080916F00BD
:103440008E7F80936F000E94B8192C2F30E0AFEF71
:10345000BFEF0E94B72623E030E040E050E00E943A
:103460008F26C9012C3764E1360700F569E070E06A
:103470000E947B267093890060938800CF91FF9013
:10348000EF90DF90CF900895C3E0809188009091F5
:103490008900892BD1F680916F00826080936F0044
:1034A00080916F00816080936F00CFCF2A50374D9D
:1034B0004F4F5F4F942F832F722F662725EF38E2EF
:1034C00041E050E00E948F2669017A01CA01B901EA
:1034D0000E945F269B01AC01C701B6010E945F26D6
:1034E000672F782F892F99276115710521E08207B1
:1034F000910509F0BFCF6FEF7FEFBCCF08950E9419
:10350000B31982E08093800089E1809381008FEF7E
:103510009FEF90938700809386000C944C180F9334
:103520001F93CF93DF93C42FD22FFC018281882376
:10353000C9F0409346020E94991E909345028093E1
:10354000440280E28C0F883008F050C0C77081E0E0
:1035500001C0880FCA95EAF7DF91CF911F910F91B3
:103560000C94F70710914602141335C08091440261
:10357000909145020E94B11E883C910560F5C0E221
:10358000CD0F1D17B9F080E2810F883040F417701D
:1035900081E001C0880F1A95EAF70E94FE07C83043
:1035A00048F481E09D2F977001C0880F9A95EAF743
:1035B0000E94F707802F0E94EF07C830B8F4D77039
:1035C00081E001C0880FDA95EAF7DF91CF911F9172
:1035D0000F910C94FE0780E28C0F883038F4C7708E
:1035E00081E001C0880FCA95EAF7EFCFDF91CF9154
:1035F0001F910F9108950F939C01CB01243F4CE53F
:10360000340759F1A8F4293DFCE53F0701F12A3DB3
:103610004CE53407D1F1283D3C4591F406E221EE1A
:1036200041EE68ED7CE50E948F1A80E00F910895CD
:10363000263FFCE53F07E9F0B0F0273F3C45F9F0B5
:10364000FC018281882339F110924602EFCF07E214
:1036500025EE45EE69ED7CE5E6CF06E221EE40EE93
:1036600064EF7CE5E0CF07E225EE44EE65EF7CE514
:10367000DACF06E221EE42EE66EF7CE5D4CF07E238
:1036800025EE46EE67EF7CE5CECF08E221E045EE81
:103690006AED7CE5C8CF81E0C9CFCF93DF93EC0121
:1036A000FB018281882309F419C1C230FCE5DF07E0
:1036B000C0F1C6319CE5D90730F09E012B5F3C4537
:1036C0002930310570F50E94DB10909378028093C9
:1036D0007702C031ECE5DE0709F4CFC008F05BC02B
:1036E000C8308CE5D80709F4B6C088F5C430ECE5DD
:1036F000DE0709F4A8C0C0F4C2308CE5D80709F48D
:103700009CC0809177028260C330DC4509F498C088
:1037100080917702909178020E94E9100E94610ADC
:1037200080E0DF91CF910895809177028061C6306B
:10373000ECE5DE0709F484C0809177028860C73029
:10374000DC4508F47DC080917702806279C0CC307E
:103750008CE5D80709F489C070F4809177028C60F9
:10376000CA30ECE5DE0709F46BC008F478C080913C
:1037700077028E7F65C0CE308CE5D80709F479C01A
:10378000809177028B7FCF30DC4508F459C080915F
:1037900077028F7E55C0CC3FECE5DE0709F457C0B9
:1037A00030F5C3318CE5D80709F46FC078F4C13126
:1037B000ECE5DE0709F465C0C231DC4509F0A8CFAD
:1037C0000E94610A809177028F773AC0C5318CE5FB
:1037D000D80709F462C008F476C08091780281604D
:1037E000CB3FDC4509F094CF8093780291CFC1158F
:1037F000FDE5DF0709F44DC088F4809178028D7FE4
:10380000CE3F9CE5D90781F3809178028E7FCF3F30
:10381000DC4550F3809178028360E6CFC230FDE54D
:10382000DF0709F459C008F444C080E0C330DD4527
:1038300009F06ECF0E946F116BCF8091770281608B
:103840008093770265CF809177028460F9CF809171
:1038500078028260C9CF809177028064F1CF0E94A4
:10386000610A809177028068EBCF809177028D7F2B
:10387000E7CF80917702877FE3CF809177028F7DBA
:10388000DFCF809177028F7BDBCF80917702837FC0
:10389000D7CF809178028C7FA7CF8091770282FB6F
:1038A000992790F921E0922790FB82F990FB83F908
:1038B000C7CF80917802982F909591708E7F892B39
:1038C00090FB81F991CF0E94610A90917702892F34
:1038D00097FB87F98058B4CF81E0ACCF81E021CF4E
:1038E000CF93DF93EB0186319C4511F50E940B10BD
:1038F0009A81992399F08A7A91E009F490E0909363
:103900004702811109C089E20E94B20F0E945B1038
:1039100080E0DF91CF91089585E3F6CF8091470253
:10392000811104C089E20E94B90FF0CF85E3FBCF7B
:1039300081E0EFCF90934D0280934C020895E09187
:103940004C02F0914D02309721F00190F081E02D72
:10395000099480E00895EF92FF920F931F93CF9305
:10396000DF93EC01E0914C02F0914D02309709F4A5
:1039700046C080910C01882341F08091770287FF37
:1039800004C08881898385E088830280F381E02DEB
:10399000CE01099580913F0282FF31C080FF04C0B3
:1039A00087E897E00E94070510E000E081E8E82E34
:1039B00087E0F82E80913F0280FF0EC0FE01E00FED
:1039C000F11F80811F928F93FF92EF920E94A005BA
:1039D0000F900F900F900F900F5F1F4F0830110541
:1039E00049F780913F0280FF0AC08FE797E0DF919F
:1039F000CF911F910F91FF90EF900C940705DF91ED
:103A0000CF911F910F91FF90EF90089520914A025E
:103A100030914B022817390771F090934B02809335
:103A20004A02E0914C02F0914D02309721F006805D
:103A3000F781E02D099408952091480230914902C0
:103A40002817390771F09093490280934802E0915A
:103A50004C02F0914D02309721F00084F185E02D69
:103A600009940895FC01329680910C01882321F07D
:103A7000809177029EE187FF96E080E0915008F404
:103A8000089521912223D1F38F5FF8CF662301F1AE
:103A900020910C012223F1F02091770227FF1AC018
:103AA000462F4695469546954E3190F4677021E035
:103AB00030E002C0220F331F6A95E2F7840F911D98
:103AC000FC01828190E02823392381E0232B69F4D3
:103AD00080E00895FC01329608962191261721F086
:103AE000E817F907D1F7F4CF81E008959C01FC01B4
:103AF00032969FEF80E04191461751F09F3F19F4B5
:103B0000411101C0982F8F5F8630A9F79F3F09F4BC
:103B10000895290F311D97FD3A95F90162830895A3
:103B2000FC01329608962191261303C0DF011197FC
:103B30001C92E817F907B9F70895E62FE695E69580
:103B4000E695EE3170F4E80FF92FF11D677021E072
:103B500030E001C0220F6A95EAF78281822B8283CE
:103B6000089580913F0280FF0CC01F926F9387EBF6
:103B700097E09F938F930E94A0050F900F900F9056
:103B80000F900895E62FE695E695E695EE3178F4E8
:103B9000E80FF92FF11D677021E030E001C0220F1E
:103BA0006A95EAF7209582812823228308958091DF
:103BB0003F0280FF0CC01F926F9389E997E09F93AB
:103BC0008F930E94A0050F900F900F900F90089573
:103BD00020910C01222329F02091770227FD0C94DB
:103BE0009D1D0C94761D20910C01222329F020911B
:103BF000770227FD0C94C21D0C94901DFC01329697
:103C000080910C01882351F08091770287FF06C0D4
:103C10008EE1DF011D928A95E9F7089586E0F9CFDC
:103C20000895089508950C94121E80919602843090
:103C300061F10E94131E80E00E94091A80E00E9438
:103C4000AF0610924E0288E190E020E40FB6F8949F
:103C5000A895809360000FBE2093600083B7817F9A
:103C6000846083BF83B7816083BF7894889583B76E
:103C70008E7F83BF0FB6F894A8958091600088610D
:103C800080936000109260000FBE08950895CF9356
:103C90000E94111E0E94E8150E94461EC0E08C2F53
:103CA0000E94BE14892B31F4CF5FC530C1F780E08C
:103CB000CF91089581E0FCCF08950C945C1E0E9482
:103CC000610A0E944C180E949F1C0E94AF060C942F
:103CD0005D1E1F921FB61F9211248F939F93AF9367
:103CE000BF9380914E02811113C080918E029091FA
:103CF0008F02A0919002B09191024196A11DB11D39
:103D000080938E0290938F02A0939002B0939102C1
:103D1000BF91AF919F918F911F901FBE1F901895DB
:103D200082E084BD93E095BD9AEF97BD80936E00CD
:103D300008952FB7F89480918E0290918F02A091F0
:103D40009002B09191022FBF08952FB7F89460911F
:103D50008E0270918F0280919002909191022FBFFC
:103D600008959C014FB7F89480918E0290918F0234
:103D7000A0919002B09191024FBF821B930B0895C6
:103D800078941F921FB61F9211248F939F93AF9325
:103D9000BF9380918E0290918F02A0919002B0917A
:103DA00091020196A11DB11D80938E0290938F0206
:103DB000A0939002B0939102BF91AF919F918F9188
:103DC0001F901FBE1F90189581E08093E00080E255
:103DD0008093D8001092C9008FE19EE40197F1F71B
:103DE00000C0000087E090EBDC0180939F0290937D
:103DF000A002A093A102B093A20288E19CE00FB6BA
:103E0000F894A895809360000FBE90936000FFCF58
:103E10009093930180939201089580917502089583
:103E200090919602943031F5809351027093530231
:103E30006093520282E08093E9008FEF9091E80056
:103E4000815095FD06C095ED9A95F1F7000081111E
:103E5000F5CF8091E80085FF0DC050E040E063E0C1
:103E600070E081E592E00E94CF218091E8008E779A
:103E70008093E8000895BC0184E00C94101FBC01FD
:103E800083E00C94101FCF93DF93EC0180910C0121
:103E90008823B1F18091770287FF32C060E282E02F
:103EA0008093E9008FEF9091E800815095FD06C066
:103EB00095ED9A95F1F700008111F5CF8091E8001A
:103EC00085FF1BC080910C0170E050E040E0811143
:103ED00004C050E040E068E070E0CE010E94CF21D5
:103EE0008091E8008E778093E80080E2FE01A5E5EE
:103EF000B2E001900D928A95E1F7DF91CF9108959C
:103F000068E081E0CDCF08958AEF97E00E94070531
:103F100080919502811109C00E945F230E94BC23F9
:103F20008091E20084608093E200089586EF97E03C
:103F30000E94070510929502089582EF97E00C9475
:103F400007058EEE97E00C9407058AEE97E00C9437
:103F50000705209150022F5F822F62E30E946F2697
:103F6000992319F0209350020895109250028091E5
:103F700054028823F1F0809196028430C1F490912C
:103F8000E9009F702091EC00822F817020FD80E875
:103F9000892B93E09093E9009091EB0090FF04C08F
:103FA0009091EE0097FD08C08F708093E900109209
:103FB000540208951092F1009091E80095FDFACF17
:103FC0009091E80090FFF0CF9091E8009E77909359
:103FD000E800EACF42E061EC81E00E94DB2242E2AD
:103FE00061EC82E00E94DB2242E261EC83E00C940F
:103FF000DB2280919802833009F45FC030F4813075
:10400000C1F1823009F49BC008958A3009F487C059
:104010008B3009F46DC0893009F04EC08091970251
:10402000813209F049C080919B0290919C020297D5
:1040300008F042C08091E800877F8093E80080917B
:10404000E80082FF35C09091F3008091F200029762
:1040500029F48091F1008B7F813021F48091F1006F
:10406000809375028091E8008B778093E8000C9430
:104070000F2380919702813AF9F48091E800877FBD
:104080008093E80080919B0290919C02892B61F4BF
:1040900060E285E592E070E00E941E228091E800D7
:1040A0008B778093E800089560E090E080E0F3CFA4
:1040B000809196028111C3CF089580919702813A31
:1040C000D9F780919B0290919C02892BA9F780914E
:1040D000E800877F8093E8008091E80080FFFCCFB4
:1040E00080910C018093F1008091E8008E77BDCF24
:1040F00080919702813201F780919B0290919C02FE
:10410000892BD1F68091E800877F8093E8000E9498
:104110000F238091990280930C010C94610A809185
:104120009702813249F68091E800877F8093E8000A
:104130000E940F2380919A028093760208958091C5
:104140009702813A09F0B8CF8091E800877F809389
:10415000E8008091E80080FFFCCF80917602C2CF1A
:104160009FB7F894109254029FBF9091960294309A
:1041700009F048C02091E9002F703091EC00932F96
:10418000917030FD90E8922B23E02093E90020917C
:10419000EB0020FF34C02091EE0027FF30C02091BB
:1041A0004F02222321F02091E80025FF28C0109221
:1041B0004F0226E03091E80035FF14C08093F100F3
:1041C0008091E80085FD27C08091E80080FFFCCF4A
:1041D0008091E8008E778093E8009F709093E900CB
:1041E00080E0089530919602343049F43091EB002C
:1041F00035FD05C0215041F481E080934F029F704E
:104200009093E9008FEF0895EFE9FFE03197F1F720
:1042100000C00000CFCF8FB7F89421E02093540264
:104220008FBFDBCF84B7877F84BF0FB6F894A89584
:1042300080916000886180936000109260000FBEE2
:1042400080E890E00FB6F89480936100909361004D
:104250000FBE0C9495110E945F230E94BC23E2EED6
:10426000F0E080818460808378940E9444260E94DC
:10427000A91182E091E00E949A1C89ED97E00C94CC
:10428000070580919602853051F485ED97E00E94F4
:10429000070580919602853021F00E945F1E0C94E4
:1042A000D9110E94151E80919402882391F30E94D7
:1042B000471E882371F30E94B9210E94610AE9CF49
:1042C0000C946221292F33272330310521F168F422
:1042D0002130310509F443C02230310509F444C0CE
:1042E00090E080E030E020E026C02132310551F13D
:1042F00022323105A9F76330710590F7FB01EE0F0B
:10430000FF1FEA57FE4F208131816D577E4FFB0121
:10431000808190E010C099278130910581F000974D
:1043200029F00297E9F6EEEFF7E002C0E4E2F8E0E8
:10433000849190E09F01FA01318320830895EEE09B
:10434000F8E0F6CF6330710558F6660F771FFB0172
:10435000E457FE4F2081318189E090E0ECCF82E18B
:1043600090E023E838E0E7CF8BE590E028E238E002
:10437000E2CF80E189BD82E189BD09B400FEFDCFB5
:104380008091D8008F7D8093D8008091E00082607A
:104390008093E0008091E00081FDFCCF0895AF9212
:1043A000BF92CF92DF92FF920F931F93CF93DF9331
:1043B0006C01EB018A010E942E23F82E811123C08B
:1043C0000115110539F0F80180819181C81BD90BC5
:1043D000C80ED91EB12CA12C2097A9F08091E8001D
:1043E00085FD22C08091E8008E778093E80001155A
:1043F0001105A1F0F80180819181A80EB91EB1824A
:10440000A08285E0F82E8F2DDF91CF911F910F9123
:10441000FF90DF90CF90BF90AF9008950E942E2321
:104420008823D1F2F82EEFCFF60181916F018093AE
:10443000F1002197FFEFAF1ABF0ACECFFC018091A8
:104440009D0290919E0286179707A0F06115710555
:1044500029F49091E8009E779093E80090E0611530
:10446000710551F4911108C08091E80082FF34C0B9
:1044700080E00895BC01F2CF809196028823C1F1BB
:104480008530C1F18091E80083FD30C08091E80063
:1044900082FDEACF8091E80080FFE1CF8091F300B8
:1044A0002091F200382F6115710519F0283031057F
:1044B00058F091E02830310509F090E02091E800B3
:1044C0002E772093E800CBCF81918093F10061504B
:1044D00071092F5F3F4FE7CF80919602882341F00B
:1044E000853041F08091E80083FFBECF81E00895E0
:1044F00082E0089583E00895FC0180919D029091EF
:104500009E0286179707A0F06115710529F4809126
:10451000E8008E778093E80090E06115710551F412
:10452000911108C08091E80082FF35C080E00895B5
:10453000BC01F2CF809196028823C9F18530C9F180
:104540008091E80083FD31C08091E80082FDEACFD0
:104550008091E80080FFE1CF8091F3002091F2008C
:10456000382F6115710519F02830310558F091E0A8
:104570002830310509F090E08091E8008E77809333
:10458000E800CBCF84918093F1003196615071099E
:104590002F5F3F4FE6CF80919602882341F0853010
:1045A00041F08091E80083FFBDCF81E0089582E073
:1045B000089583E00895982F973028F08F708093A6
:1045C000E90081E008959093E900242F762F50E0D0
:1045D000981731F07091EC002091ED005091F000AF
:1045E00021FD02C09F5FE8CF3091EB003E7F30930A
:1045F000EB003091ED003D7F3093ED003091EB000A
:1046000031603093EB007093EC002093ED005093F9
:10461000F0002091EE0027FDE5CF80E00895809125
:10462000970287FF13C08091E80082FF06C0809147
:10463000E8008B778093E80004C080919602811196
:10464000F2CF0895809196028823D9F38091E800F3
:1046500080FFF8CF8091E8008E77ECCF2091E400C6
:104660003091E50095E6A9012091EC00822F817040
:1046700020FF06C08091E80080FF06C080E008951A
:104680002091E80022FD1AC080919602882389F0CB
:10469000853089F08091EB0085FD0FC02091E4000A
:1046A0003091E50042175307F9F29150E1F684E0AA
:1046B000089582E0089583E0089581E008950E94BE
:1046C000CD230E94D523E0EEF0E0808181608083DD
:1046D000E8EDF0E080818F77808319BCA7EDB0E032
:1046E0008C918E7F8C9380818F7E80831092950237
:1046F00008950F931F93CF93DF930E94CD230E94C1
:10470000D523C8EDD0E088818F7788838881806841
:10471000888388818F7D888319BC109296021092BD
:104720009202109294021092930200EE10E0F801AF
:1047300080818B7F808388818160888342E060E014
:1047400080E00E94DB22E1EEF0E080818E7F8083BA
:10475000E2EEF0E0808181608083808188608083E8
:10476000F80180818E7F8083888180618883DF91DA
:10477000CF911F910F910895E8EDF0E080818F7E39
:104780008083E7EDF0E080818160808384E082BFF8
:1047900081E0809395020C947923E8EDF0E080812C
:1047A0008E7F80831092E20008951092DA001092BA
:1047B000E10008951F920F920FB60F9211242F93CC
:1047C0003F934F935F936F937F938F939F93AF9399
:1047D000BF93EF93FF938091E10082FF0BC0809124
:1047E000E20082FF07C08091E1008B7F8093E100AF
:1047F0000E94A91F8091DA0080FF19C08091D80023
:1048000080FF15C08091DA008E7F8093DA0080915E
:10481000D90080FF96C080E189BD82E189BD09B4DD
:1048200000FEFDCF81E0809396020E94841F80915C
:10483000E10080FF19C08091E20080FF15C08091E7
:10484000E2008E7F8093E2008091E200806180939D
:10485000E2008091D80080628093D80019BC85E086
:10486000809396020E94A11F8091E10084FF2BC0DB
:104870008091E20084FF27C080E189BD82E189BD8B
:1048800089B5982F917080FFFBCF8091D8008F7DE4
:104890008093D8008091E1008F7E8093E100809129
:1048A000E2008F7E8093E2008091E200816080933D
:1048B000E20080919202882309F449C084E0809349
:1048C00096020E94A51F8091E10083FF29C080917C
:1048D000E20083FF25C08091E100877F8093E100A3
:1048E00082E080939602109292028091E1008E7F86
:1048F0008093E1008091E2008E7F8093E2008091BE
:10490000E20080618093E20042E060E080E00E948B
:10491000DB228091F00088608093F0000E949D1F50
:10492000FF91EF91BF91AF919F918F917F916F9187
:104930005F914F913F912F910F900FBE0F901F905D
:10494000189519BC109296020E94961F70CF809104
:10495000E30087FD93E090939602B3CF1F920F92EE
:104960000FB60F9211242F933F934F935F936F9342
:104970007F938F939F93AF93BF93CF93DF93EF93E7
:10498000FF93D091E900DF708091EC00C82FC170D7
:1049900080FDC0E81092E9008091F000877F80934D
:1049A000F00078940E94F2241092E9008091F000C7
:1049B00088608093F000CD2BCF70C093E900FF9109
:1049C000EF91DF91CF91BF91AF919F918F917F91A7
:1049D0006F915F914F913F912F910F900FBE0F906C
:1049E0001F9018951F93CF93DF93CDB7DEB7AA978B
:1049F0000FB6F894DEBF0FBECDBF87E992E02091DD
:104A0000F100FC012193CF01F2E08F399F07B9F744
:104A10000E94F91F8091E80083FF1EC180919702D8
:104A2000909198029A3008F017C1E92FF0E0E15810
:104A3000F84D0C94B126803899F0823809F00CC1F9
:104A400080919B028F70873008F006C18093E90047
:104A50008091EB0085FB882780F91092E90006C061
:104A60008091930290919402911182609091E8005C
:104A7000977F9093E8008093F1001092F10080916D
:104A8000E8008E77E5C0882309F4D3C0823009F0AE
:104A9000E3C0809199028111D6C080919B028F70F2
:104AA0002FEF280F263008F0D7C08093E90020911F
:104AB000EB0020FFC8C0933031F48091EB0080629E
:104AC0008093EB00C0C09091EB0090619093EB005D
:104AD00021E030E001C0220F8A95EAF72093EA0036
:104AE0001092EA008091EB008860EACF8111B4C097
:104AF000109199021F778091E3008078812B809339
:104B0000E3008091E800877F8093E8000E940F23F4
:104B10008091E80080FFFCCF8091E3008068809363
:104B2000E30082E0111183E08093960295C08058E3
:104B3000823008F091C08091990290919A028C3D48
:104B400023E09207A1F583E08A838AE289834FB745
:104B5000F894DE01139620E03EE051E2E32FF0E00E
:104B600050935700E49120FF03C0E295EF703F5F40
:104B7000EF708E2F90E0EA30C0F0C7968D939D9332
:104B80002F5F243159F74FBF8091E800877F8093D2
:104B9000E8006AE270E0CE0101960E941E22809138
:104BA000E8008B778093E80057C0C096E7CF60910C
:104BB0009B0270919C02AE014F5F5F4F0E9460218B
:104BC000BC01892B09F448C09091E800977F90932D
:104BD000E80089819A810E947C22E1CF8038E1F54A
:104BE0008091E800877F8093E80080919202809313
:104BF000F10045CF811130C090919902923060F55B
:104C00008091E800877F8093E800909392020E9451
:104C10000F2380919202882311F084E005C08091D7
:104C2000E30087FDFACF81E0809396020E94EA1F9D
:104C300013C080919902813079F481E0933009F0BA
:104C400080E0809394021092E9008091E800877FD1
:104C50008093E8000E940F238091E80083FF0AC040
:104C60008091E800877F8093E8008091EB0080626C
:104C70008093EB00AA960FB6F894DEBF0FBECDBFAF
:104C8000DF91CF911F910895CF9380919602882351
:104C9000A1F0C091E900CF709091EC00892F817054
:104CA00090FD80E8C82B1092E9008091E80083FD18
:104CB0000E94F224CF70C093E900CF910895DB01E8
:104CC0008F939F930E94C626BF91AF91A29F800DA4
:104CD000911DA39F900DB29F900D11240895991BD3
:104CE00079E004C0991F961708F0961B881F7A95E3
:104CF000C9F780950895AA1BBB1B51E107C0AA1FE5
:104D0000BB1FA617B70710F0A61BB70B881F991F6C
:104D10005A95A9F780959095BC01CD010895A1E21F
:104D20001A2EAA1BBB1BFD010DC0AA1FBB1FEE1F25
:104D3000FF1FA217B307E407F50720F0A21BB30B70
:104D4000E40BF50B661F771F881F991F1A9469F7EC
:104D500060957095809590959B01AC01BD01CF0148
:104D60000895EE0FFF1F0590F491E02D0994A29F86
:104D7000B001B39FC001A39F700D811D1124911D2F
:104D8000B29F700D811D1124911D08950E94B726B8
:104D9000A59F900DB49F900DA49F800D911D11248F
:104DA0000895FB01DC0104C08D910190801921F46C
:104DB00041505040C8F7881B990B0895F999FECFD0
:104DC00092BD81BDF89A992780B50895A8E1B0E019
:104DD00042E050E00C941227262FF999FECF92BDA5
:104DE00081BDF89A019700B4021639F01FBA20BDB0
:104DF0000FB6F894FA9AF99A0FBE08950396272FE2
:104E00000E94ED260E94EC26252F0E94ED26242FDD
:104E10000C94ED260196272F0E94ED260C94EC268B
:104E2000DC01CB01FC01F999FECF06C0F2BDE1BD6A
:104E3000F89A319600B40D9241505040B8F7089559
:104E4000F894FFCF3908390891089108E3086608FB
:104E500066086608FF088B099A099A09F609660828
:104E60006608FF09700A700A790A790A7B0A790ACA
:104E7000790A790A700A700A800A790A790A800A1E
:104E800052173A175917A716EE17EE173517EE17E0
:104E9000EE178517EE179517D417EE17EE17EE17C6
:104EA000EE17A817EE17EE17A517EE177017EE17E7
:104EB000EE17EC17EC17EC17EC17EC17EC17EC17D8
:104EC000EC17EC17E617EE1752172E17EE17EE1722
:104ED000EE17EE17EE17EE17EE17EE17EE17EE17AA
:104EE000E617EE17EE173517EE17EA17EA17EA1767
:104EF000EA17EA17EA17EA17EA17EA17E6171B256F
:104F000043252C2643252C26762597252C26EE2571
:024F1000FA2580
:104F120009020D1F431F831F3F1F3B1F01E200E9D0
:104F220000EA00B500B600B700CD008301CC008ACC
:104F32000192019401210223022402250226022762
:104F4200022A02B300B4006F007000818283E20083
:104F5200E900EA00B500B600B700CD008301CC003D
:104F62008A019201940121022302240225022602CF
:104F720027022A02B300B4006F007000818283F717
:104F82006766323391929395949697343536F6F557
:104F9200F4F1F0406D222409B70895083A08530845
:024FA2006C0899
:00000001FF
