:100000000C9472040C94B9040C94B9040C94B904C3
:100010000C94B9040C94B9040C94B9040C94B9046C
:100020000C94B9040C94B9040C94CE210C94A22223
:100030000C94651C0C94B9040C94B9040C94B90488
:100040000C94B9040C94B9040C94B9040C94B9043C
:100050000C94B9040C94BC1C0C94B9040C94B90411
:100060000C94B9040C94B9040C94B9040C94B9041C
:100070000C94B9040C94B9040C94B9040C94B9040C
:100080000C94B9040C94B9040C94B9040C94B904FC
:100090000C94B9040C94B9040C94B9040C94B904EC
:1000A0000C94B9040C94B9040C94B90429001E00F2
:1000B0001F0020002100220023002400250026002C
:1000C00027002D002E002A004C002B0014001A00DF
:1000D0000800150017001C0018000C001200130087
:1000E0002F00300031004A003900040016000700DC
:1000F00009000A000B000D000E000F003300340051
:10010000280000004B00E1001D001B000600190044
:10011000050011001000360037003800E50000002F
:1001200052004E00E000E300E200000000002C005E
:10013000000000000000E600E700E400500051006D
:100140004F0044454255473A2064697361626C65CB
:10015000642E0A0044454255473A20656E61626C40
:1001600065642E0A000A002530313662003A20000C
:1001700025303258000A722F632030313233343543
:10018000363738394142434445460A003F00433E32
:1001900020004C25640A0074696D65725F726561A8
:1001A00064333228293A202530346C580A006B65B4
:1001B000796D61705F636F6E6669672E6E6B726FCB
:1001C0003A2025580A006B6579626F6172645F6935
:1001D000646C653A2025580A006B6579626F61721C
:1001E000645F70726F746F636F6C3A2025580A00F9
:1001F000686F73745F6B6579626F6172645F6C6561
:10020000647328293A2025580A000A092D205374BE
:1002100061747573202D0A004743433A20382E3409
:100220002E30204156522D4C4942433A20322E3036
:100230002E30204156525F415243483A2061767237
:10024000350A004F5054494F4E533A204C554641C1
:100250002045585452414B455920434F4E534F4C23
:100260004520434F4D4D414E44204E4B524F20347C
:100270003039360A004255494C443A20202853650B
:10028000702020322032303231290A005649443A57
:1002900020307831303234284E65696C4B68657295
:1002A0006129205049443A20307832303438284C83
:1002B000756E61363529205645523A2030783030F7
:1002C00030310A000A092D2056657273696F6E205D
:1002D0002D0A000A092D20436F6E736F6C65202D67
:1002E0000A4553432F713A09717569740A000A0966
:1002F0002D204D61676963202D0A443A09446562E7
:100300007567204D65737361676520546F67676C0F
:10031000650A583A094D61747269782044656275BE
:1003200067204D6F646520546F67676C65202D20D2
:1003300053686F77206B657970726573736573208E
:10034000696E206D617472697820677269640A4B06
:100350003A094B6579626F61726420446562756722
:1003600020546F67676C65202D2053686F77206B72
:1003700065797072657373207265706F72740A4D5F
:100380003A094465627567204D6F75736520546F37
:1003900067676C650A563A0956657273696F6E0A2B
:1003A000533A095374617475730A433A094163748B
:1003B000697661746520436F6E736F6C65204D6F55
:1003C00064650A46312D4631303A095377697463C2
:1003D0006820746F204C6179657220302D39202897
:1003E000463130203D204C30290A302D393A09530E
:1003F000776974636820746F204C6179657220306E
:100400002D390A47524156453A0953776974636852
:1004100020746F204C6179657220302028616C74E3
:1004200065726E617465290A423A094A756D7020D9
:10043000746F20426F6F746C6F616465720A45530C
:10044000433A094A756D7020746F20426F6F746C67
:100450006F616465722028616C7465726E61746589
:10046000290A453A095072696E7420454550524F29
:100470004D2053657474696E67730A42535041434B
:10048000453A09436C65617220454550524F4D0A0B
:100490004E3A094E4B524F20546F67676C650A0005
:1004A0000A002575002E6E6B726F3A20000A002537
:1004B00075002E737761705F6261636B736C61733B
:1004C000685F6261636B73706163653A20000A0064
:1004D0002575002E737761705F67726176655F6561
:1004E00073633A20000A002575002E6E6F5F6775F2
:1004F000693A20000A002575002E737761705F72DB
:10050000616C745F726775693A20000A0025750096
:100510002E737761705F6C616C745F6C6775693A9C
:1005200020000A002575002E737761705F72637476
:100530006C5F726775693A20000A002575002E739A
:100540007761705F6C63746C5F6C6775693A2000EB
:100550000A002575002E636170736C6F636B5F74A6
:100560006F5F636F6E74726F6C3A20000A002575BE
:10057000002E737761705F636F6E74726F6C5F6370
:100580006170736C6F636B3A20000A00253032583B
:10059000006B65796D61705F636F6E6669672E725F
:1005A00061773A20000A002575002E6D6F7573651E
:1005B0003A20000A002575002E6B6579626F617222
:1005C000643A20000A002575002E6D617472697806
:1005D0003A20000A002575002E656E61626C653A4E
:1005E00020000A00253032580064656275675F6339
:1005F0006F6E6669672E7261773A20000A00257572
:100600000064656661756C745F6C617965723A202F
:10061000003F004E4B524F3A206F66660A004E4B29
:10062000524F3A206F6E0A000A6D6F7573653A205B
:100630006F66660A000A6D6F7573653A206F6E0A01
:10064000000A6B6579626F6172643A206F66660AB0
:10065000000A6B6579626F6172643A206F6E0A00FE
:100660000A6D61747269783A206F66660A000A6DD5
:1006700061747269783A206F6E0A000A6465627567
:10068000673A206F66660A000A64656275673A20F9
:100690006F6E0A000A0A4A756D70696E6720746F82
:1006A00020626F6F746C6F616465722E2E2E200055
:1006B000433E2000436C656172696E67204545507A
:1006C000524F4D0A006565636F6E6669673A0A00AE
:1006D0000A002530325820006B6579626F617264C0
:1006E0005F7265706F72743A20000A0025303258CC
:1006F000006B6579626F6172645F7365745F6C65CE
:10070000643A20004F6E6573686F743A20616374B9
:100710006976653A2025640A0064656C5F6B6579CB
:100720005F6269743A2063616E27742064656C3A75
:1007300020253032580A006164645F6B65795F621E
:1007400069743A2063616E2774206164643A2025DD
:100750003032580A005B735D004B6579626F6172DD
:10076000642073746172742E0A005B575D005B53E2
:100770005D005B525D005B445D005B435D000E030A
:100780004C0075006E006100360035000000140357
:100790004E00650069006C004B0068006500720047
:1007A000610000000403090409025B00030100A0CA
:1007B000FA090400000103010100092111010001EF
:1007C0002240000705810308000A09040100010313
:1007D000000000092111010001226D0007058203BC
:1007E00020000A090402000203000000092111018F
:1007F00000012222000705830320000107050303EF
:1008000020000112011001000000082410482001FE
:1008100000010200010631FF0974A10109751500EC
:1008200026FF009520750881020976150026FF0035
:10083000952075089102C005010980A10185031961
:10084000012AB700150126B700950175108100C077
:10085000050C0901A101850419012AA00215012630
:10086000A002950175108100C005010906A101854E
:1008700005050719E029E71500250195087501818F
:10088000020507190029EF1500250195F075018172
:100890000205081901290595057501910295017553
:1008A000039101C005010906A101050719E029E727
:1008B00015002501950875018102950175088101D2
:1008C0000507190029FF150026FF00950675088108
:1008D0000005081901290595057501910295017515
:1008E000039101C011241FBECFEFDAE0DEBFCDBF00
:1008F00004B603FE27C080919B0290919C02A091B8
:100900009D02B0919E028730904BA740B04BD1F42E
:1009100010929B0210929C0210929D0210929E02D5
:1009200014BE84B7877F84BF0FB6F894A8958091D2
:100930006000886180936000109260000FBEE0E06C
:10094000F8E3099511E0A0E0B1E0E0E2FAE402C0CA
:1009500005900D92A239B107D9F722E0A2E9B1E0E2
:1009600001C01D92AB39B207E1F70E94031F0C943E
:10097000A7240C940000FF93EF93E0919201F09173
:100980009301309709F00995EF91FF910895FC01CB
:100990008591803011F0EFDFFBCF0895FF27E0E273
:1009A00030E247FF0CC0419597FF09C0EDE260952A
:1009B000709580959095611D711D811D911D27FF7A
:1009C00002C0219530E350E2AA27660F771F881FE7
:1009D000991FAA1FA41710F0A41B63955A95A9F795
:1009E000AA3008F0A95FA05DAF93F395611571057A
:1009F0008105910541F7ED3211F4EF93F395F2176C
:100A000018F43F93F395FBCF8F91B5DFFA95E1F79B
:100A10000895E991F9918591803021F0853219F09E
:100A2000AADFF9CF089520E0E89455915532C1F33B
:100A3000503311F4689455915A3348F4505390F35D
:100A4000220F022E220F220F200D250FF4CF0EF4BD
:100A5000219589919991533619F3533729F15335DB
:100A600059F1BC0188279927E8945C3621F48991D3
:100A7000999168945591543639F446EF7EF077FF9A
:100A80000DC08FEF9FEF0AC055374AE039F0583557
:100A900040E121F0523642E009F00895FF93EF93D0
:100AA0007DDFEF91FF91B7CFFF93EF93FC01819131
:100AB0008030B9F360DFFBCFFF93EF9368DFF1CFB6
:100AC000DF93CF93CDB7DEB72596A3DFCF91DF912C
:100AD000089581E0089581E008950C946B050895D0
:100AE0000C946F051F93CF93DF9300D000D00F922B
:100AF000CDB7DEB749835A836B833091B5018981C5
:100B00009A8131111DC06623B9F02223A9F00E94F9
:100B10000219182F682F89819A810E94AE18698165
:100B20007A81812F0F900F900F900F900F90DF918F
:100B3000CF911F910C946E060E94DA18182FEFCFF8
:100B40000E94021969817A81EDCFFC01262F408134
:100B500051816281738184810C947205CF93DF93FC
:100B6000EC0160E00E94A505BE01DF91CF910C94DD
:100B700070050E9471080C9496080C9499080895C9
:100B80000E9418140E94BF052FEF84E39CE02150BF
:100B900080409040E1F700C000000C94E01C0F93EF
:100BA0001F93CF93DF938C0161E00E94A505EC01B8
:100BB000B8010E946D058823C1F1B801CE010E94E1
:100BC000300D882391F1B801CE010E94820D882357
:100BD00061F1B801CE010E94A50E882331F1F80120
:100BE0008281882361F0CF3DFCE5DF07B1F170F42D
:100BF000C115ECE5DE07B9F0C130DC45E1F0C80114
:100C0000DF91CF911F910F910C946905CC358DE543
:100C1000D80749F1CD35DC0719F1CB35DD4579F73A
:100C20000E94C519ECCF0E94C00580E0DF91CF91F2
:100C30001F910F91089590914D02892F8E7F90FF03
:100C4000816080934D0280FF05C084E591E00E94A1
:100C5000C704EBCF82E491E0FACF0E942D1BE5CFD1
:100C60000E94BC19CCCF0E94C819C9CF829590E0D0
:100C70009C01220F331F220F331F2C7C95958795E3
:100C8000959587958373282B30E0C901880F991FAC
:100C90008A7A359527952575822B0895CF93DF9312
:100CA000D92F0E943606C82F8D2F0E9436069C2F02
:100CB000DF91CF91089508950C945B0681E008952B
:100CC0000C945E06CF93C82F0E945C068C2FCF91A8
:100CD0000C94600690E080E008950895972F70E0EE
:100CE0002FE0929F600D711D1124FB019BE4899FF1
:100CF000E00DF11D1124EE0FFF1FE455FF4F85910C
:100D000094910895FC01EE0FFF1FEB59FE4F859162
:100D100094910895CF93DF930E946E060E949607E8
:100D2000EC01811520E5920708F041C0811530E4FF
:100D3000930708F0B4C0803E910518F5803C9105FA
:100D400008F09DC0883A910570F4853A910508F045
:100D50008EC081309105F9F00097E9F00497D8F43E
:100D6000D0E0C0E018C08F3B9105D0F7C85AD0E062
:100D7000CC0FDD1FC35FDE4F0990D881C02DD46436
:100D80000AC08115904258F4C11581E0D80718F4C3
:100D9000C83ED10528F7CE01DF91CF910895C11546
:100DA00090E3D90708F071C0CE019F706AC0811529
:100DB00025E5920758F5811534E5930708F09EC0A4
:100DC000811542E5940750F4C11581E5D80708F470
:100DD00069C0DC2FCC27C16FD06ADDCF982F9695E4
:100DE00096959E0123703327C115D34508F077C02F
:100DF000C1E0D0E002C0CC0FDD1F2A95E2F720E26F
:100E0000929FC0011124C82BD92B67C0C11589E559
:100E1000D807A8F4C11598E5D90708F074C0C11522
:100E200026E5D20708F09CCF8C2F0E942D08C82FF2
:100E3000D0E0DC2FCC27CC27DF71D062ACCFC1153E
:100E40003AE5D30708F464C0CE019056811590426C
:100E500008F086CF8D2F8F710E942D0890E0982F7B
:100E6000882788279F719C012C2BE901E6CFC55A62
:100E7000D0E0C55CDE4FC881D0E0D0648CCF805C10
:100E800091090E948206EC0186CFCE019927D3FFFB
:100E900003C0EC01D86C7FCFEC01D06C7CCFDF704D
:100EA000D06A79CFCE01E4E096958795EA95E1F78F
:100EB00083702C2F26952695237090E2299F900110
:100EC0001124382B8C2F8370C1E0D0E002C0CC0FEE
:100ED000DD1F8A95E2F7C22BD32BDC685CCFC1E023
:100EE000D0E002C0CC0FDD1F2A95E2F730E2939FDD
:100EF000C0011124C82BD92BDA684DCFD82FCC27AD
:100F0000C46FD06A48CFDC2FCC27C06FD06A43CFE4
:100F10008C2F8F700E942D0834E0D695C7953A9596
:100F2000E1F7CF709C2FEC01D06935CF8238910565
:100F3000B1F1B0F48133910509F475C048F48932F8
:100F4000910509F469C08A32910509F473C00895C6
:100F50008533910509F459C08933910501F108954C
:100F6000833E9105A9F138F4803E9105F9F0823E67
:100F7000910549F10895863E9105A9F1873E9105B5
:100F8000C9F1843E910519F52091750221FF1FC01A
:100F90008091740284FD14C087EE90E00895209142
:100FA00074022370A1F080EE90E008952091740205
:100FB00020FD47C03091750230FF09C024FF44C0B6
:100FC00090E080E004C02091740222FDF7CF0895E4
:100FD0002091740222FD3BC03091750230FDE3CFB9
:100FE00024FFF5CFEDCF2091740223FFF0CF24FD35
:100FF000E7CFD2CF2091740223FD2CC0309175022F
:1010000031FFEECF84EE90E008952091740225FF29
:10101000DECF89E290E008952091740225FFD7CFBA
:1010200085E390E008952091740226FFD0CF8AE2F4
:1010300090E008952091740226FFC9CF81E390E0EB
:10104000089589E390E0089583EE90E0089582EE9C
:1010500090E0089586EE90E008959091740292FFDA
:1010600006C0282F28712830F9F4877F846093FF09
:1010700006C0282F28712831F1F4877E84612091E1
:10108000750220FF06C0382F38713830D9F4877FB9
:10109000816021FF06C0282F28712831D1F4877E76
:1010A000816194FD877E0895282F24712430F9F6FC
:1010B0008B7F8860DCCF282F2471243101F78B7E51
:1010C0008861DDCF382F3171313019F78E7F88601C
:1010D000E0CF282F2171213121F78E7E8861E1CF69
:1010E00008950E94881A811102C00E942D1B0E943F
:1010F000931A80934D020E949B1A909375028093DD
:1011000074020E9470080E94971A682F70E090E0A5
:1011100080E00E94B01760912002709121028091BE
:101120002202909123020C94EA1708950C949508DA
:1011300008950C949808E82FF0E0EE0FFF1FE05898
:10114000FD4F808191810895CF92DF92EF92FF92BF
:101150000F931F93CF93DF9385E791E00E94C7041D
:1011600080E8E82E82E0F82ED0E0C0E090E7C92EBB
:1011700091E0D92E07E611E0DF93CF93DF92CF9273
:101180000E9460058DE691E00E94C704F7018191FD
:1011900091917F010E944E069F938F931F930F930F
:1011A0000E94600585E691E00E94C70421968DB7F4
:1011B0009EB708960FB6F8949EBF0FBE8DBFC53080
:1011C000D105D1F6DF91CF911F910F91FF90EF9054
:1011D000DF90CF90089580EA8A95F1F7089500C0D6
:1011E00008950C94EB08F894E82FE295EF70F0E086
:1011F00031A1282F2F7081E090E001C0880F2A953F
:10120000EAF7982F9095932391A392A1892B82A31B
:10121000789408950F931F93CF93DF9387EF0E94E5
:10122000F30886EF0E94F30885EF0E94F30884EF2D
:101230000E94F30881EF0E94F308CEE3D1E00DE4B1
:1012400011E089910E94F3080C171D07D1F7109245
:101250007702109276021092810210928002109210
:1012600079021092780210928302109282021092F8
:101270007B0210927A0210928502109284021092E0
:101280007D0210927C0210928702109286021092C8
:101290007F0210927E02109289021092880285E0ED
:1012A0000E94D809DF91CF911F910F910C94B9053D
:1012B000AF92BF92DF92EF92FF920F931F93CF9363
:1012C000DF93CDE4D1E006E712E0D12CEE24E394E5
:1012D000F12C8991F894E82FE295EF70F0E021A1CC
:1012E0008F70A70102C0440F551F8A95E2F7CA010B
:1012F000922F982B91A392A18095892382A3789411
:101300000E94EF08EEE3F1E030E020E0B12CA12CE8
:101310004191A42FA295AF70B0E090968C9190E08F
:101320004F7002C0959587954A95E2F780FD3BC0C6
:10133000C701022E02C0880F991F0A94E2F7A82A5B
:10134000B92A2F5F3F4F2F30310511F7FE0131973A
:1013500080810E94F3080E94F108F8018081918148
:10136000A816B90619F1B182A08281E0D82A0E5FD1
:101370001F4FF1E0C235DF0709F0ABCF2D2D45E05F
:1013800060E872E086E792E00E94D9090E94BD05FC
:101390008D2DDF91CF911F910F91FF90EF90DF90F6
:1013A000BF90AF90089590E080E0C9CF80E0DECF9D
:1013B0000895FF920F931F93CF93DF93F82E092F79
:1013C000162FD72FC42F222349F081E08093960156
:1013D0000E94951C909395018093940180919601B1
:1013E0008823A1F080919401909195010E94AD1CF9
:1013F000069760F0EF2DF02FA12FBD2F90E080E039
:10140000D0E08C179D0744F010929601DF91CF91A8
:101410001F910F91FF900895219131912D933D934C
:101420000196EFCFCF93C82F1F928F9382E991E05F
:101430009F938F930E94600561E070E080E090E0F0
:1014400004C0660F771F881F991FCA95D2F70E94A4
:10145000B0170F900F900F900F90CF910C9418141D
:10146000CF93DF93EBEFE80FEF3308F040C2F0E0EB
:10147000E755FB4D0C945F2485EC96E00E94C70471
:1014800081E096E00E94C7040E94971A1F928F93F2
:101490008EEF95E09F938F930E9460058CEF95E00F
:1014A0000E94C7040E94931AC82F89EE95E00E94FB
:1014B000C7041F92CF9384EE95E09F938F930E9471
:1014C000600582EE95E00E94C70488ED95E00E94D9
:1014D000C7048C2F81701F928F9385ED95E09F93A9
:1014E0008F930E94600583ED95E00E94C70489EC0C
:1014F00095E00E94C704C1FB882780F91F928F9353
:1015000086EC95E09F938F930E94600584EC95E0B4
:101510000E94C70488EB95E00E94C704C2FB88279D
:1015200080F91F928F9385EB95E09F938F930E9494
:10153000600583EB95E00E94C7048AEA95E00E946B
:10154000C704C3FBCC27C0F91F92CF9387EA95E06D
:101550009F938F930E94600585EA95E00E94C704DF
:101560000E949B1AEC0181E995E00E94C704DF9379
:10157000CF938CE895E09F938F930E9460058AE853
:1015800095E00E94C70481E795E00E94C7048C2F74
:1015900081701F928F938EE695E09F938F930E94A8
:1015A00060058DB79EB780960FB6F8949EBF0FBEAC
:1015B0008DBF8CE695E00E94C70485E595E00E940A
:1015C000C704C1FB882780F91F928F9382E595E0BD
:1015D0009F938F930E94600580E595E00E94C70469
:1015E0008EE395E00E94C7048D2F81701F928F9328
:1015F0008BE395E09F938F930E94600589E395E0CC
:101600000E94C70487E295E00E94C704D695D17076
:101610001F92DF9384E295E09F938F930E94600571
:1016200082E295E00E94C70480E195E00E94C70431
:10163000C2FB882780F91F928F938DE095E09F93DE
:101640008F930E9460058BE095E00E94C70489EFAC
:1016500094E00E94C704C3FB882780F91F928F93F0
:1016600086EF94E09F938F930E94600584EF94E04F
:101670000E94C7048AEE94E00E94C704C4FB882736
:1016800080F91F928F9387EE94E09F938F930E942F
:10169000600585EE94E00E94C70483ED94E00E940B
:1016A000C704C5FB882780F91F928F9380ED94E0D3
:1016B0009F938F930E9460058EEC94E00E94C70474
:1016C00082EB94E00E94C704C6FB882780F91F9232
:1016D0008F938FEA94E09F938F930E9460058DB75C
:1016E0009EB780960FB6F8949EBF0FBE8DBF8DEA51
:1016F00094E00E94C70485EA94E00E94C704C7FBF7
:10170000CC27C0F91F92CF9382EA94E09F938F93E6
:101710000E94600580EA94E00E94C7040F900F9039
:101720000F900F9081E01CC084EB96E00E94C704EC
:101730000E942D1BF7CF8EEE92E00E94C704F2CFDD
:1017400080914D02807F80934D0283ED92E00E9454
:10175000C70480EB96E00E94C70481E08093970164
:10176000DF91CF91089584E996E00E94C7040E941A
:10177000C005D8CF90914D02892F8E7F90FF816058
:1017800080934D0280FF03C088E896E0D6CF8BE7B8
:1017900096E00E94C70480914D02817F80934D02A4
:1017A000C1CF90914D02892F8D7F91FF82608093F0
:1017B0004D0281FF08C08EE696E00E94C70480912A
:1017C0004D028160EBCF80E696E0B7CF90914D025D
:1017D000892F8B7F92FF846080934D0282FF03C02C
:1017E00081E596E0EACF81E496E0A7CF90914D02A3
:1017F000892F877F93FF886080934D0283FF03C00A
:1018000085E396E0DACF88E296E097CF84EC92E029
:101810000E94C7048CE892E00E94C70485E792E02A
:101820000E94C70483E492E00E94C70488E192E02A
:1018300084CF8AE092E00E94C7040E94D40E1F92D7
:101840008F9380EF91E09F938F930E94600580912A
:101850000C011F928F9389ED91E09F938F930E94CB
:101860006005809173021F928F9386EC91E09F93A5
:101870008F930E9460058091740287FB882780F90E
:101880001F928F938EEA91E09F938F930E94600541
:101890000E94A11C9F938F937F936F9387E991E0A0
:1018A0009F938F930E9460058DB79EB746960FB6A3
:1018B000F8949EBF0FBE8DBF35CF0E941814909133
:1018C0007402892F97FB87F980588093740287FFF1
:1018D00003C08EE196E031CF83E196E02ECF80E029
:1018E0000E94120A1FCF8953FBCF8D51F9CF81E19E
:1018F00096E00E94C70480E033CF80E008950C9406
:101900007D0CCF93C82F80919701882331F08130CF
:1019100099F01092970180E00DC00E94CB1982329D
:10192000D1F78C2F0E947D0C811119C08C2F0E9441
:10193000300A8170CF9108950E94CB19823289F3C9
:101940008C2F0E947F0C811119C0C431C9F050F452
:10195000CB3061F08CE891E00E94C70413C081E0B5
:1019600090E0E7CFC93261F0C833A1F783ED92E090
:101970000E94C7048EE891E00E94C70481E0D9CF9D
:101980001092970180E0D5CF0F931F93CF93DF93F1
:10199000C42FD22FFC0182818823C9F040939A0181
:1019A0000E94951C909399018093980180E28C0F7E
:1019B000883008F050C0C77081E001C0880FCA9518
:1019C000EAF7DF91CF911F910F910C94AE11109116
:1019D0009A01141335C080919801909199010E9449
:1019E000AD1C883C910560F5C0E2CD0F1D17B9F024
:1019F00080E2810F883040F4177081E001C0880FC9
:101A00001A95EAF70E94B511C83048F481E09D2F7D
:101A1000977001C0880F9A95EAF70E94AE11802F47
:101A20000E94A611C830B8F4D77081E001C0880FB9
:101A3000DA95EAF7DF91CF911F910F910C94B511D0
:101A400080E28C0F883038F4C77081E001C0880FC5
:101A5000CA95EAF7EFCFDF91CF911F910F910895CB
:101A60000F939C01CB01243F4CE5340759F1A8F4B6
:101A7000293DFCE53F0701F12A3D4CE53407D1F152
:101A8000283D3C4591F406E221EE41EE68ED7CE50F
:101A90000E94C40C80E00F910895263FFCE53F07AB
:101AA000E9F0B0F0273F3C45F9F0FC018281882342
:101AB00039F110929A01EFCF07E225EE45EE69ED7C
:101AC0007CE5E6CF06E221EE40EE64EF7CE5E0CF78
:101AD00007E225EE44EE65EF7CE5DACF06E221EE83
:101AE00042EE66EF7CE5D4CF07E225EE46EE67EFE7
:101AF0007CE5CECF08E221E045EE6AED7CE5C8CF7B
:101B000081E0C9CFCF93DF93EC01FB018281882371
:101B100009F419C1C230FCE5DF07C0F1C6319CE50C
:101B2000D90730F09E012B5F3C452930310570F517
:101B30000E949B1A9093750280937402C031ECE569
:101B4000DE0709F4CFC008F05BC0C8308CE5D807C9
:101B500009F4B6C088F5C430ECE5DE0709F4A8C086
:101B6000C0F4C2308CE5D80709F49CC0809174029F
:101B70008260C330DC4509F498C080917402909172
:101B800075020E94A91A0E94181480E0DF91CF917B
:101B90000895809174028061C630ECE5DE0709F497
:101BA00084C0809174028860C730DC4508F47DC031
:101BB00080917402806279C0CC308CE5D80709F43A
:101BC00089C070F4809174028C60CA30ECE5DE0745
:101BD00009F46BC008F478C0809174028E7F65C0F0
:101BE000CE308CE5D80709F479C0809174028B7FE0
:101BF000CF30DC4508F459C0809174028F7E55C007
:101C0000CC3FECE5DE0709F457C030F5C3318CE575
:101C1000D80709F46FC078F4C131ECE5DE0709F4A8
:101C200065C0C231DC4509F0A8CF0E94181480912C
:101C300074028F773AC0C5318CE5D80709F462C0C9
:101C400008F476C0809175028160CB3FDC4509F0D5
:101C500094CF8093750291CFC115FDE5DF0709F49C
:101C60004DC088F4809175028D7FCE3F9CE5D907E9
:101C700081F3809175028E7FCF3FDC4550F38091D8
:101C800075028360E6CFC230FDE5DF0709F459C075
:101C900008F444C080E0C330DD4509F06ECF0E94F7
:101CA0002F1B6BCF8091740281608093740265CF8B
:101CB000809174028460F9CF809175028260C9CFEF
:101CC000809174028064F1CF0E9418148091740294
:101CD0008068EBCF809174028D7FE7CF8091740292
:101CE000877FE3CF809174028F7DDFCF8091740274
:101CF0008F7BDBCF80917402837FD7CF8091750279
:101D00008C7FA7CF8091740282FB992790F921E004
:101D1000922790FB82F990FB83F9C7CF80917502DF
:101D2000982F909591708E7F892B90FB81F991CFA0
:101D30000E94181490917402892F97FB87F980589C
:101D4000B4CF81E0ACCF81E021CFCF93DF93EB0123
:101D500086319C4511F50E94CB199A81992399F0FF
:101D60008A7A91E009F490E090939B01811109C077
:101D700089E20E9472190E941B1A80E0DF91CF91C4
:101D8000089585E3F6CF80919B01811104C089E21B
:101D90000E947919F0CF85E3FBCF81E0EFCF9093DC
:101DA000A1018093A0010895E091A001F091A1010B
:101DB000309721F00190F081E02D099480E00895A2
:101DC000EF92FF920F931F93CF93DF93EC01E0917B
:101DD000A001F091A101309709F446C080910C0157
:101DE000882341F08091740287FF04C08881898331
:101DF00085E088830280F381E02DCE0109958091F2
:101E00004D0282FF31C080FF04C088ED96E00E9441
:101E1000C70410E000E082EDE82E86E0F82E809105
:101E20004D0280FF0EC0FE01E00FF11F80811F9266
:101E30008F93FF92EF920E9460050F900F900F908A
:101E40000F900F5F1F4F0830110549F780914D0229
:101E500080FF0AC080ED96E0DF91CF911F910F9136
:101E6000FF90EF900C94C704DF91CF911F910F91D9
:101E7000FF90EF90089520919E0130919F012817C7
:101E8000390771F090939F0180939E01E091A0012A
:101E9000F091A101309721F00680F781E02D09949F
:101EA000089520919C0130919D012817390771F008
:101EB00090939D0180939C01E091A001F091A1017C
:101EC000309721F00084F185E02D099408950E9457
:101ED000A11C6093B1017093B2018093B301909300
:101EE000B4016093AD017093AE018093AF01909304
:101EF000B001089585B7806885BF85B7806885BFC4
:101F00000895089508950C94810F08950C94850FF9
:101F10000E947A0F81EA9EE10E94F11C0E94820FCA
:101F20000C94830F81E008950C94920F0895089506
:101F30000E94960F0C94970F0E948C1C0E940A0915
:101F40000C94860FCF93C82F80914D0282FF1EC044
:101F500080FF1CC081EF96E00E94C70480914D0273
:101F600080FF14C01F92CF938CEE96E09F938F93C7
:101F70000E94600580914D020F900F900F900F907E
:101F800080FF04C08AEE96E00E94C7048C2FCF9198
:101F90000C9462068F929F92AF92BF92CF92DF9283
:101FA000EF92FF920F931F93CF93DF93CDB7DEB7DE
:101FB0002A970FB6F894DEBF0FBECDBF0E94580916
:101FC00081110E94670F53EA852E51E0952E10E093
:101FD00000E0A02E802F0E949B086C01F401E1908C
:101FE000F1904F01E816F90609F45AC080914D02AC
:101FF00081FD0E94A408C7018C259D25B12CEE24EB
:10200000E394F12C9C012E213F21232B09F442C0A3
:102010000E94940F8823A9F0BE82AF82CE20DF20D9
:1020200081E0CD2809F480E088870E94951C8160BA
:10203000782F9A8789874E815F8168858A850E947B
:102040007A10000F111FF801ED55FE4F808191812C
:10205000E826F926F182E0820E94D40E9091A20136
:102060008917A9F10E94D40E8093A2012A960FB677
:10207000F894DEBF0FBECDBFDF91CF911F910F91BE
:10208000FF90EF90DF90CF90BF90AF909F908F9098
:102090000C94A20FB394EE0CFF1CFFE0BF12B2CF62
:1020A0000F5F1F4F0530110509F093CF8FEF898324
:1020B0008A831B820E94951C8160782F9D838C836C
:1020C00049815A816B818D810E947A10C5CF2A96F1
:1020D0000FB6F894DEBF0FBECDBFDF91CF911F9139
:1020E0000F91FF90EF90DF90CF90BF90AF909F90B7
:1020F0008F900895DF92EF92FF920F931F93CF93EB
:10210000DF93CDB7DEB72B970FB6F894DEBF0FBEC7
:10211000CDBF7A878B87F42E052F162FE72ED82E6A
:1021200061110E94EB191E821D827E2DEC82DD82E0
:102130004F2D502F612F8D2D9E812B960FB6F89429
:10214000DEBF0FBECDBFDF91CF911F910F91FF90EA
:10215000EF90DF900C948E16FC01808191810C949D
:102160004419CF93C82F882309F488C08238C1F45A
:102170000E94D40E81FD82C089E30E9472190E94E0
:102180001B1A2FEF81EE94E0215080409040E1F740
:1021900000C0000089E30E947919CF910C941B1AAA
:1021A0008338A1F40E94D40E80FD68C083E50E94AC
:1021B00072190E941B1A2FEF81EE94E0215080408B
:1021C0009040E1F700C0000083E5E5CF8438A1F43A
:1021D0000E94D40E82FD52C087E40E9472190E94B0
:1021E0001B1A2FEF81EE94E0215080409040E1F7E0
:1021F00000C0000087E4CFCF8CEF8C0F813AB8F499
:102200008C2F0E94810C811139C06C2F80910001AC
:10221000909101010E94481B882329F08C2F0E9475
:1022200079190E941B1A8C2F0E947219B6CF80E276
:102230008C0F883048F4C77081E001C0880FCA95C0
:10224000EAF70E94CE19A9CFEBE5EC0FE33040F49A
:10225000F0E0E058FE4F808190E0CF910C943B0F6E
:10226000C85AC73158F4EC2FF0E0EE0FFF1FEE5ABA
:10227000FE4F80819181CF910C94510FCF910895A1
:10228000882309F44BC0823871F40E94D40E81FF78
:1022900045C089E30E9472190E941B1A89E30E94BB
:1022A00079190C941B1A833859F40E94D40E80FFBC
:1022B00035C083E50E9472190E941B1A83E5EFCF97
:1022C000843859F40E94D40E82FF28C087E40E940B
:1022D00072190E941B1A87E4E2CF9CEF980F913A83
:1022E000F0F290E2980F983050F4877091E001C0BE
:1022F000990F8A95EAF7892F0E94D419D2CF9BE5CE
:10230000980F933020F490E080E00C943B0F885AB3
:10231000873120F490E080E00C94510F08951F93D2
:10232000CF93DF93182FEB010E94B110209731F467
:10233000812FDF91CF911F910C9440118FE99FE085
:102340000197F1F700C000002197F0CF70E060E046
:10235000893311F460E570E00C948F11882321F02B
:102360000E94CE190C941B1A0895882321F00E9414
:10237000D4190C941B1A0895BF92CF92DF92EF925A
:10238000FF920F931F93CF93DF936C01D62FC72F2C
:10239000FC011281058102950F700E949019E82EB0
:1023A0008823A1F0E12E112389F08C2F807F8034C7
:1023B00029F080E28D0FE12C883040F082E00E940D
:1023C0006C1A0E94901991E0E82EE926BC2EB29476
:1023D0009FE0B922EB2DF0E0E851FB4D0C945F2417
:1023E0000C2F0F70C07F11F00295007F1123A9F010
:1023F000002359F080E28D0F883010F0D11109C010
:10240000802F0E94CE190E941B1A8D2F0E94B1109E
:1024100014C0802F0E94DE19F6CF8D2F0E9440112C
:10242000002359F080E28D0F883010F0D1112CC0BC
:10243000802F0E94D4190E941B1A2B2D2850330B79
:102440002430310520F40E94D40E0E946206EE2052
:1024500009F493C10E948C1980FD8FC1F60112828C
:102460000E9486190E941218C6010E94DE130E9463
:102470008619DF91CF911F910F91FF90EF90DF9020
:10248000CF90BF900C943318802F0E94E419D3CFC3
:10249000FC2FFF70FF2EC07FC03219F0F29480EF46
:1024A000F822DD2369F0D13049F1112391F10023A5
:1024B00051F1F601858180FFA8CF8F70858323C0FD
:1024C000112381F0011106C00E94FE198F290E947C
:1024D000AE11B3CF0130C1F70E94FE198F290E94BF
:1024E000041AABCF011106C00E94111A8F2D0E9451
:1024F000B511A3CF013009F4A0CFF6CF112329F0F5
:10250000063008F09ACF8F2DE2CF053008F095CF36
:10251000EDCF002359F3D93349F4FFEF27EE33E031
:10252000F15020403040E1F700C000008D2F0E94A4
:10253000401183CF8C2F86958695837069F081300A
:1025400009F07BCF8D2F9C2F9370111102C090E06A
:1025500080E00E94510F71CF8D2F9C2F937011112D
:1025600002C090E080E00E943B0F67CF8C2F837009
:1025700009F041C0111161CF4D2F4295469547702A
:10258000440F440F0D2F0F7010E030E020E0042EB8
:1025900004C0000F111F221F331F0A94D2F760E0FE
:1025A00070E0CB01D4FF0FC06FE070E080E090E0FE
:1025B00004C0660F771F881F991F4A95D2F7609550
:1025C000709580959095C695C695C370602B712BBC
:1025D000822B932BC23049F058F4C13019F00E947D
:1025E000C4172BCF0E94B21728CF0E94D61725CF31
:1025F0000E94B01722CF8695112311F08C2F817085
:10260000882309F41ACF4D2F429546954770440F01
:10261000440F0D2F0F7010E030E020E0042E04C0B6
:10262000000F111F221F331F0A94D2F760E070E0E1
:10263000CB01D4FF0FC06FE070E080E090E004C0F9
:10264000660F771F881F991F4A95D2F7609570957E
:1026500080959095C695C695C370602B712B822B83
:10266000932BC23049F058F4C13019F00E948918F8
:10267000E4CE0E947718E1CE0E949B18DECE0E9425
:10268000EC17DBCECF70112329F08C2F0E9412188B
:102690008D2F1DCF8D2F0E94B5118C2F0E943318C6
:1026A000CCCED23F89F160F4D03FC9F0D13F29F1BF
:1026B000112309F442C00111A8CE8C2F8F7121C0C3
:1026C000D33F39F1D43FA1F7112369F1CF718C2F9A
:1026D0000E94121863E08C2F0E94511AAECE112373
:1026E00041F0053008F0A9CE8C2F8F710E9456184A
:1026F000A4CE063008F0A1CEF7CF8C2F8F71112316
:1027000069F20E94121899CE8C2F8F711123C9F390
:10271000C5CF112329F08C2F8F710E94FD178DCE0C
:102720000E94F8178ACE81E00E946C1A023008F4E9
:1027300084CE82E00E946C1A80CE002359F0D933F7
:1027400009F0F4CE8FEF97EEE3E081509040E04047
:10275000E1F7EACE8C2F8F71A1CF4C2F4F706D2FE8
:10276000C6010E946A060E94281767CE4C2F4F7040
:102770006D2FC6010E946D0660CEDF91CF911F9133
:102780000F91FF90EF90DF90CF90BF9008950F933F
:102790001F93CF93DF93EC01688179818A810E9436
:1027A0004E198C010E94AD180E94AF17B801CE01DE
:1027B000DF91CF911F910F910C94BC11CF93DF93B8
:1027C000EC018B819C81892B29F088819981892357
:1027D0008F3F59F4DF91CF910895CE010E94C71326
:1027E000CE01DF91CF910C94AE05CE010E94CF05B2
:1027F0008111F3CF0E949019882361F38A81882385
:1028000049F382E0DF91CF910C946C1A90E080E064
:102810000E943B0F90E080E00E94510F0E94EB1954
:102820000E94FB190C941B1A0E9480190C94061428
:102830000E94DB190C941414E92FE295EF70E2501A
:10284000EE3070F4F0E0E850FB4D0C945F24803FD4
:1028500019F020F4883E20F481E00895843FE1F3EC
:1028600080E00895883EC0F3813FD1F7F5CF93FB18
:10287000882780F908950E9444190C941C14CF9362
:10288000DF9300D000D00F92CDB7DEB70F900F903E
:102890000F900F900F90DF91CF910895CF93DF931A
:1028A00000D000D000D0CDB7DEB726960FB6F89492
:1028B000DEBF0FBECDBFDF91CF9108951F93CF93A1
:1028C000DF93C091B60116E08091B7018C1304C06C
:1028D000DF91CF911F910895D0E01C9FF0011D9FC3
:1028E000F00D1124E854FE4F4081518162817381C3
:1028F000848195810E944E142196C770E5CF409146
:10290000E8015091E9016091EA017091EB01809139
:10291000EC019091ED010C944E141F93CF93DF9333
:102920008091ED01807FA9F48091EA01882389F0EC
:102930008091B601C091B7016091E8017091E90101
:10294000A091EB01B091EC01D62FD72316E0C8136C
:1029500004C0DF91CF911F91089590E0109711F07E
:10296000DF3F19F401968770F2CF189F9001199FED
:10297000300D1124F901E854FE4F41814713F2CF85
:1029800040814613EFCF42814111ECCF4381548106
:102990004A1B5B0B483C510528F78091ED018F7075
:1029A00080618093ED01F901E354FE4F80818F70C7
:1029B0008061808388EE91E00E94DE13DF91CF91E9
:1029C0001F910C945E14AF92BF92CF92DF92EF9260
:1029D000FF920F931F93CF93DF93CDB7DEB761972D
:1029E0000FB6F894DEBF0FBECDBF8C0185E0F801B5
:1029F000DE011D9601900D928A95E1F7F801408164
:102A00005181E28088EEC82E81E0D82E6091EB01E2
:102A10007091EC016115710509F461C19091E801B3
:102A20002091E901892F82238F3F09F458C1A380A7
:102A3000B480F090EA01F501E61BF70BFF2009F4E2
:102A4000FCC08091ED01382F307FE83CF10508F0A3
:102A5000B2C0311179C0FE2C251323C0941321C0BC
:102A6000E1101FC08F7080618093ED010E947F1480
:102A7000C6010E94DE138091ED01F80185838F2D40
:102A800061960FB6F894DEBF0FBECDBFDF91CF9138
:102A90001F910F91FF90EF90DF90CF90BF90AF907C
:102AA0000895AB2829F0842F85238F3F09F033C187
:102AB00080E0F82FF170DF2E80FF3CC08091B601DE
:102AC0002091B70136E0821315C04D875E878D8552
:102AD0009E850E944419292F22952F702230F0F0F4
:102AE000243018F59F70F1F0F8019581907FD1F4B2
:102AF000D12C1EC090E0389FF001399FF00D1124B9
:102B0000E854FE4F6181651306C06081641303C001
:102B100062816E110FC001968770D5CF9F7011F042
:102B2000882331F3805E883018F3C8010E94DE13D9
:102B3000FD2CA5CFEE2009F4A2CF8091ED0181609C
:102B40008093ED01F12C9BCF251306C0941304C094
:102B5000F801EE2009F48DC04D875E878D859E8536
:102B60000E943B14882319F1EE2009F18091ED01B8
:102B7000803270F02091E8013091E90138872F838D
:102B80001986BB86AA868C87CE0107960E94DE1323
:102B900086E0F801A8EEB1E001900D928A95E1F788
:102BA0000E948D140E947F14FF24F39468CFC80103
:102BB0000E94DE13F9CF311113C07A2DB98AA88A89
:102BC0006E2D89890E943F1488EE91E00E94DE13E9
:102BD00086E0F60111928A95E9F70E947F14B2CF40
:102BE00025130FC094130DC0E1100BC0F8018583AD
:102BF000C8010E94DE1386E0F60111928A95E9F77A
:102C00003ECF4D875E878D859E850E943B1488232D
:102C100071F2EE2061F28091ED01803208F4B8CFBC
:102C20002091E8013091E9013A8329831B82BD821A
:102C3000AC828E83CE010196A9CFE83CF10508F065
:102C400041C0FE2CEE2009F4B2CF25132AC0941304
:102C500028C08091ED0180FD1BC0982F907FC1F0AE
:102C6000F8018583903F31F0982F907F905F8F70AF
:102C7000892B8583C8010E94DE1386E0F801A8EE47
:102C8000B1E001900D928A95E1F70E947F14F7CE92
:102C900086E0F801A8EEB1E001900D928A95E1F787
:102CA000EECE4D875E878D859E850E943B148111F7
:102CB0006FCF8091ED0181608093ED01C8010E948A
:102CC000DE13DDCE7A2DB98AA88A6E2D89890E94FD
:102CD0003F1486E0F60111928A95E9F7D6CFEE20EF
:102CE00009F465CF4D875E878D859E850E943B14D4
:102CF000F82E882309F45BCF86E0F801A8EEB1E056
:102D000001900D928A95E1F788EE91E00E94AC1057
:102D10000E948D14BACF81E08E25CBCE1F93CF9326
:102D2000DF93CDB7DEB72C970FB6F894DEBF0FBE9A
:102D3000CDBF4F83588769877A878B879C87CE0161
:102D400007960E94E314882369F08A859B85892B66
:102D500039F04F815885842F85238F3F09F071C04A
:102D600016E05FC086E0FE013796DE011196019005
:102D70000D928A95E1F78A859B85892B89F38F814E
:102D8000988589238F3F61F32091B70130E0C90115
:102D90000196877099274091B6014817190671F47A
:102DA0000E9418141092B7011092B60186E0E8EE66
:102DB000F1E0DF011D928A95E9F7D2CF96E0929F6C
:102DC000D001939FB00D1124A854BE4FFE0131963F
:102DD00001900D929A95E1F78093B7010E945E14DD
:102DE000BFCF819FC001112488549E4F0E94E314DD
:102DF0008823E9F0E091B6011E9FF0011124E85408
:102E0000FE4F4081518162817381848195810E944E
:102E10004E148091B60190E00196877099278093B7
:102E2000B6018091B6019091B7018913DACF2C9643
:102E30000FB6F894DEBF0FBECDBFDF91CF911F91CB
:102E4000089569857A858B859C850E944E1488CF6C
:102E5000EF92FF920F931F93CF93DF938C01892BF7
:102E600081F0F12CEE24E394E8012196F80184919D
:102E7000843770F4843008F05FC08130B1F0823064
:102E8000A1F1DF91CF911F910F91FF90EF900895E5
:102E9000853709F44CC008F43DC09CE7980F903783
:102EA00080F78F770E94401149C00E5F1F4FFE01CF
:102EB000849190E2980F983060F48770FE2D01C0E5
:102EC000FF0F8A95EAF78F2F0E94EE190E941B1AB6
:102ED00002C00E94B1108F2D815030F2EFE9FFE067
:102EE0003197F1F700C00000F7CF0E5F1F4FFE01D2
:102EF000849190E2980F983050F48770FE2D01C0B5
:102F0000FF0F8A95EAF78F2F0E94F419DFCF0E94F6
:102F10004011E1CF0E5F1F4FFE01C491C150D8F2A6
:102F20008FE99FE00197F1F700C00000F7CF0E5F37
:102F30001F4FFE01F490CFCF0E94B1108E01CBCF76
:102F400008950C94A0170E94A11760932402709317
:102F5000250280932602909327020C94061408956C
:102F60000C94A3170F931F93009124021091250234
:102F70002091260230912702602B712B822B932BFC
:102F80001F910F910C94A3170F931F93009124028C
:102F9000109125022091260230912702602371238F
:102FA000822393231F910F910C94A3170F931F93C8
:102FB00000912402109125022091260230912702CF
:102FC00060277127822793271F910F910C94A317D5
:102FD0000C94A0170C94E8170E94EA176093200243
:102FE0007093210280932202909323020C94061482
:102FF00060E070E0CB010C94EC170F931F9341E05D
:1030000050E060E070E08A019B0104C0000F111FD6
:10301000221F331F8A95D2F7C901B8011F910F9162
:103020000C94EC170F931F9341E050E060E070E0C8
:1030300004C0440F551F661F771F8A95D2F78091F1
:10304000200290912102A0912202B09123028A01D4
:103050009B01082B192B2A2B3B2BC901B8011F916F
:103060000F910C94EC170F931F9341E050E060E038
:1030700070E004C0440F551F661F771F8A95D2F772
:10308000CB01BA01609570958095909500912002D2
:10309000109121022091220230912302602371239A
:1030A000822393231F910F910C94EC170F931F937E
:1030B00041E050E060E070E004C0440F551F661F1F
:1030C000771F8A95D2F78091200290912102A091DA
:1030D0002202B09123028A019B01082719272A277F
:1030E0003B27C901B8011F910F910C94EC170F9366
:1030F0001F93009120021091210220912202309111
:103100002302602B712B822B932B1F910F910C9418
:10311000EC170F931F930091200210912102209130
:1031200022023091230260237123822393231F9173
:103130000F910C94EC170F931F93009120021091A4
:1031400021022091220230912302602771278227D9
:1031500093271F910F910C94EC1708952FE0929FE5
:10316000800D1124982F977041E001C0440F9A956B
:10317000EAF786958695869595E0899FF00111245A
:10318000E251FE4F90E080E070E05191DF01119735
:103190009B01082E02C0369527950A94E2F721700C
:1031A00021952527242325272C93019685309105E9
:1031B00061F708952FE0929F800D1124982F97704A
:1031C00086958695869525E0829FF0011124E2512F
:1031D000FE4F50E040E080E0219130E0092E02C037
:1031E000369527950A94E2F721703327042E01C003
:1031F000220F0A94EAF7822B4F5F5F4F453051054B
:1032000059F70895BF92CF92DF92EF92FF920F93FA
:103210001F93CF93DF938C01C0902002D0902102A6
:10322000E0902202F09023028091240290912502E6
:10323000A0912602B0912702C82AD92AEA2AFB2A9D
:10324000CFE1D0E0BC2ED701C6010C2E04C0B6954C
:10325000A795979587950A94D2F780FD0EC0219780
:1032600088F7B12C8B2DDF91CF911F910F91FF909B
:10327000EF90DF90CF90BF900895B8018C2F0E94FF
:103280008A06019761F3EECFCF93DF93EC010E94A2
:103290000219BE01DF91CF910C948A061F93CF9340
:1032A000DF93EB019091B501992331F0CB01DF91D0
:1032B000CF911F910C944419882379F0CB010E947F
:1032C0000219182F682FCE010E94AE18BE01812F5F
:1032D000DF91CF911F910C948A06CB010E94DA18DE
:1032E000182FF4CF682F80910001909101010C9468
:1032F000EA1B682F80910001909101010C94F51B4D
:1033000080910001909101010C94001C8091280291
:1033100085958595859508958091280287700895F3
:1033200090912802977081E009F480E00895CF938E
:10333000C82F8091750282FB992790F99C17D1F0D4
:10334000C0FB82F98093750280917402909175029E
:103350000E94A91A80914D0280FF0CC01F92CF934A
:1033600084E097E09F938F930E9460050F900F90E9
:103370000F900F90CF9108958091750282FB88275E
:1033800080F991E089270C94971981E00C949719A2
:1033900080E00C94971980914C02089590914C0212
:1033A000892B80934C020895809590914C0298232C
:1033B00090934C02089510924C02089590914B0204
:1033C000892B80934B020895809590914B0298230E
:1033D00090934B02089510924B02089590914A02E7
:1033E000892B80934A020895809590914A029823F0
:1033F00090934A02089510924A02089580912902FA
:10340000089508950C94011A9091750292FD08C0D8
:1034100090912902981721F0809329020C94021AA6
:10342000089580912902882329F01092290280E0D2
:103430000C94021A0895E0910001F091010180912D
:103440004C028083E0910001F09101018081909114
:103450004B02892B8083E0910001F0910101808172
:1034600090914A02892B808390912902992381F0BF
:10347000E0910001F09101018081892B808380918E
:103480000001909101010E94341B81110E94111AC8
:1034900080910001909101010C94E00E08950C942C
:1034A0004E1A9091750292FD10C098E0899F90018C
:1034B0001124622B609328020E9412188091280226
:1034C0008595859585950C944F1A0C941218109239
:1034D000280280E00C944F1A90912802809589234D
:1034E00080932802282F277039F4282F082E000CEB
:1034F000330B9217130621F49091750292FF07C0C7
:103500008595859585950E9433180C94671A0895C2
:1035100090E080E00E946D2421E08A3E9E4F09F0F9
:1035200020E0822F089582E090E00C94652483E0EF
:1035300090E00C946524CF9384E090E00E94652491
:10354000C82F82E290E00E946524982F8C2FCF91A3
:103550000895CF93C92F682F84E090E00E947324D0
:103560006C2F82E290E0CF910C947324AB01BC01EC
:103570008FE090E00C948524AB01BC0183E190E0E6
:103580000C94852460E070E0CB010C94BC1A60E0E0
:1035900070E0CB010E94B61A0C94C21A6AEE7EEF5C
:1035A00090E080E00E94912460E082E090E00E9440
:1035B000732460E083E090E00E9473241092240260
:1035C00010922502109226021092270260E084E0F9
:1035D00090E00E94732460E082E290E00E947324F5
:1035E00060E085E090E00E94732460E086E090E077
:1035F0000E9473246FEF87E090E00E94732440E004
:1036000050E0BA0188E090E00E94852460E08DE0FF
:1036100090E00E94732440E050E0BA0188E190E01D
:103620000E94852460E087E190E00E94732440E0DE
:1036300050E0BA018CE190E00E94852470E060E0E7
:1036400080E290E00E94912440E050E0BA0188E1DD
:1036500090E00E9485240C94C71A0C94CE1A682F0F
:103660008EE090E00C947324FC01329680910C0162
:10367000882321F0809174029EE187FF96E080E02C
:10368000915008F4089521912223D1F38F5FF8CF50
:10369000662301F120910C012223F1F020917402A4
:1036A00027FF1AC0462F4695469546954E3190F411
:1036B000677021E030E002C0220F331F6A95E2F705
:1036C000840F911DFC01828190E02823392381E041
:1036D000232B69F480E00895FC013296089621912D
:1036E000261721F0E817F907D1F7F4CF81E0089504
:1036F0009C01FC0132969FEF80E04191461751F00A
:103700009F3F19F4411101C0982F8F5F8630A9F7B0
:103710009F3F09F40895290F311D97FD3A95F9014E
:1037200062830895FC01329608962191261303C006
:10373000DF0111971C92E817F907B9F70895E62FF2
:10374000E695E695E695EE3170F4E80FF92FF11D58
:10375000677021E030E001C0220F6A95EAF78281AC
:10376000822B8283089580914D0280FF0CC01F92AE
:103770006F9387E397E09F938F930E9460050F906C
:103780000F900F900F900895E62FE695E695E69539
:10379000EE3178F4E80FF92FF11D677021E030E089
:1037A00001C0220F6A95EAF720958281282322839F
:1037B000089580914D0280FF0CC01F926F9389E1A4
:1037C00097E09F938F930E9460050F900F900F904A
:1037D0000F90089520910C01222329F0209174026A
:1037E00027FD0C949F1B0C94781B20910C01222325
:1037F00029F02091740227FD0C94C41B0C94921B99
:10380000FC01329680910C01882351F08091740262
:1038100087FF06C08EE1DF011D928A95E9F70895C2
:1038200086E0F9CF089508950C94131C80919202BC
:10383000843049F10E94141C80E00E9462061092BC
:103840004E0288E190E020E40FB6F894A8958093AA
:1038500060000FBE2093600083B7817F846083BFC8
:1038600083B7816083BF7894889583B78E7F83BF49
:103870000FB6F894A89580916000886180936000ED
:10388000109260000FBE08950895CF930E94121CFD
:103890000E9458090E94441CC0E08C2F0E949B0883
:1038A000892B31F4CF5FC530C1F780E0CF91089507
:1038B00081E0FCCF08950C945A1C0E9418140E94B9
:1038C000D40E0E9462060C945B1C1F921FB61F92BE
:1038D00011248F939F93AF93BF9380914E028111D8
:1038E00013C080918A0290918B02A0918C02B091BA
:1038F0008D024196A11DB11D80938A0290938B0287
:10390000A0938C02B0938D02BF91AF919F918F9144
:103910001F901FBE1F90189582E084BD93E095BD57
:103920009AEF97BD80936E0008952FB7F894809119
:103930008A0290918B02A0918C02B0918D022FBFD0
:1039400008952FB7F89460918A0270918B0280914C
:103950008C0290918D022FBF08959C014FB7F8946F
:1039600080918A0290918B02A0918C02B0918D027D
:103970004FBF821B930B089578941F921FB61F921E
:1039800011248F939F93AF93BF9380918A0290915C
:103990008B02A0918C02B0918D020196A11DB11DE8
:1039A00080938A0290938B02A0938C02B0938D0235
:1039B000BF91AF919F918F911F901FBE1F9018953F
:1039C00087E797E7909301088093000888E19AE0E1
:1039D0000FB6F894A895809360000FBE9093600096
:1039E000FFCF90939301809392010895809172028A
:1039F00008950895CF93DF9300D00F92CDB7DEB72F
:103A000090919202943019F589837B836A8382E0D6
:103A10008093E9008FEF9091E800815095FD06C0FA
:103A200095ED9A95F1F700008111F5CF8091E800AE
:103A300085FF0DC050E040E063E070E0CE010196EC
:103A40000E94C31F8091E8008E778093E8000F905A
:103A50000F900F90DF91CF910895BC0184E00C94FA
:103A6000FA1CBC0183E00C94FA1CCF93DF93EC01A9
:103A700080910C018823B1F18091740287FF32C0DC
:103A800060E282E08093E9008FEF9091E80081503E
:103A900095FD06C095ED9A95F1F700008111F5CFDF
:103AA0008091E80085FF1BC080910C0170E050E020
:103AB00040E0811104C050E040E068E070E0CE01D9
:103AC0000E94C31F8091E8008E778093E80080E217
:103AD000FE01A2E5B2E001900D928A95E1F7DF9137
:103AE000CF91089568E081E0CDCF8AE797E00E940A
:103AF000C70480919102811109C00E9453210E9444
:103B0000B0218091E20084608093E200089586E70E
:103B100097E00E94C70410929102089582E797E00F
:103B20000C94C7048EE697E00C94C7048AE697E0ED
:103B30000C94C704209150022F5F822F62E30E94F1
:103B40005324992319F020935002089510925002A3
:103B5000809151028823F1F0809192028430C1F467
:103B60009091E9009F702091EC00822F817020FDE0
:103B700080E8892B93E09093E9009091EB0090FF0F
:103B800004C09091EE0097FD08C08F708093E9000B
:103B90001092510208951092F1009091E80095FD65
:103BA000FACF9091E80090FFF0CF9091E8009E77D7
:103BB0009093E800EACF42E061EC81E00E94CF20E0
:103BC00042E261EC82E00E94CF2042E261EC83E0BD
:103BD0000C94CF2080919402833009F45FC030F4BC
:103BE0008130C1F1823009F49BC008958A3009F414
:103BF00087C08B3009F46DC0893009F04EC08091C8
:103C00009302813209F049C0809197029091980205
:103C1000029708F042C08091E800877F8093E80017
:103C20008091E80082FF35C09091F3008091F2000E
:103C3000029729F48091F1008B7F813021F48091EB
:103C4000F100809372028091E8008B778093E80006
:103C50000C94032180919302813AF9F48091E80059
:103C6000877F8093E8008091970290919802892B3A
:103C700061F460E282E592E070E00E94122080919F
:103C8000E8008B778093E800089560E090E080E0A2
:103C9000F3CF809192028111C3CF08958091930256
:103CA000813AD9F78091970290919802892BA9F7D0
:103CB0008091E800877F8093E8008091E80080FF92
:103CC000FCCF80910C018093F1008091E8008E7709
:103CD000BDCF80919302813201F78091970290913C
:103CE0009802892BD1F68091E800877F8093E800C5
:103CF0000E9403218091950280930C010C9418146A
:103D000080919302813249F68091E800877F809309
:103D1000E8000E9403218091960280937302089527
:103D200080919302813A09F0B8CF8091E800877FB3
:103D30008093E8008091E80080FFFCCF80917302BF
:103D4000C2CF9FB7F894109251029FBF90919202F8
:103D5000943009F048C02091E9002F703091EC00B8
:103D6000932F917030FD90E8922B23E02093E9008F
:103D70002091EB0020FF34C02091EE0027FF30C0DF
:103D800020914F02222321F02091E80025FF28C036
:103D900010924F0226E03091E80035FF14C0809366
:103DA000F1008091E80085FD27C08091E80080FF48
:103DB000FCCF8091E8008E778093E8009F7090930D
:103DC000E90080E0089530919202343049F4309156
:103DD000EB0035FD05C0215041F481E080934F0296
:103DE0009F709093E9008FEF0895EFE9FFE031971E
:103DF000F1F700C00000CFCF8FB7F89421E02093F7
:103E000051028FBFDBCF84B7877F84BF0FB6F89492
:103E1000A895809160008861809360001092600096
:103E20000FBE80E890E00FB6F89480936100909305
:103E300061000FBE0E94880F0E9453210E94B02192
:103E40008091E20084608093E20078940E9438249C
:103E50000E949C0F82E091E00E94CF0E89E597E0DE
:103E60000E94C70480919202853051F485E597E065
:103E70000E94C70480919202853039F00E945D1C37
:103E80000E94CA0F0E94980FEDCF0E94161C8091CD
:103E90009002882379F30E94451C882359F30E94DD
:103EA000AD1F0E941814E6CF0C94561F292F3327FC
:103EB0002330310521F168F42130310509F443C084
:103EC0002230310509F444C090E080E030E020E089
:103ED00026C02132310551F122323105A9F7633074
:103EE000710590F7FB01EE0FFF1FEA57FE4F20818F
:103EF00031816D577E4FFB01808190E010C0992782
:103F00008130910581F0009729F00297E9F6EEE7FC
:103F1000F7E002C0E4EAF7E0849190E09F01FA0143
:103F2000318320830895EEE8F7E0F6CF6330710522
:103F300058F6660F771FFB01E457FE4F2081318151
:103F400089E090E0ECCF82E190E023E038E0E7CF39
:103F50008BE590E028EA37E0E2CF80E189BD82E19D
:103F600089BD09B400FEFDCF8091D8008F7D80937C
:103F7000D8008091E00082608093E0008091E000B2
:103F800081FDFCCF0895AF92BF92CF92DF92FF9256
:103F90000F931F93CF93DF936C01EB018A010E9473
:103FA0002221F82E811123C00115110539F0F801E5
:103FB00080819181C81BD90BC80ED91EB12CA12CB0
:103FC0002097A9F08091E80085FD22C08091E8004B
:103FD0008E778093E80001151105A1F0F80180812A
:103FE0009181A80EB91EB182A08285E0F82E8F2D96
:103FF000DF91CF911F910F91FF90DF90CF90BF90F5
:10400000AF9008950E9422218823D1F2F82EEFCF9D
:10401000F60181916F018093F1002197FFEFAF1AB4
:10402000BF0ACECFFC018091990290919A02861727
:104030009707A0F06115710529F49091E8009E772B
:104040009093E80090E06115710551F4911108C05A
:104050008091E80082FF34C080E00895BC01F2CF77
:10406000809192028823C1F18530C1F18091E800EE
:1040700083FD30C08091E80082FDEACF8091E800A6
:1040800080FFE1CF8091F3002091F200382F61157D
:10409000710519F02830310558F091E028303105CC
:1040A00009F090E02091E8002E772093E800CBCF34
:1040B00081918093F100615071092F5F3F4FE7CFED
:1040C00080919202882341F0853041F08091E80090
:1040D00083FFBECF81E0089582E0089583E00895D4
:1040E000FC018091990290919A0286179707A0F09F
:1040F0006115710529F48091E8008E778093E800BE
:1041000090E06115710551F4911108C08091E800AB
:1041100082FF35C080E00895BC01F2CF8091920209
:104120008823C9F18530C9F18091E80083FD31C051
:104130008091E80082FDEACF8091E80080FFE1CF26
:104140008091F3002091F200382F6115710519F06C
:104150002830310558F091E02830310509F090E021
:104160008091E8008E778093E800CBCF8491809394
:10417000F1003196615071092F5F3F4FE6CF80917A
:104180009202882341F0853041F08091E80083FF5E
:10419000BDCF81E0089582E0089583E00895982FCF
:1041A000973028F08F708093E90081E00895909314
:1041B000E900242F762F50E0981731F07091EC0031
:1041C0002091ED005091F00021FD02C09F5FE8CFEB
:1041D0003091EB003E7F3093EB003091ED003D7F5E
:1041E0003093ED003091EB0031603093EB00709331
:1041F000EC002093ED005093F0002091EE0027FD9D
:10420000E5CF80E008958091930287FF13C08091ED
:10421000E80082FF06C08091E8008B778093E80079
:1042200004C0809192028111F2CF08958091920290
:104230008823D9F38091E80080FFF8CF8091E800CF
:104240008E77ECCF2091E4003091E50095E6A9014E
:104250002091EC00822F817020FF06C08091E80041
:1042600080FF06C080E008952091E80022FD1AC07A
:1042700080919202882389F0853089F08091EB004B
:1042800085FD0FC02091E4003091E50042175307EF
:10429000F9F29150E1F684E0089582E0089583E018
:1042A000089581E008950E94C1210E94C921E0EE95
:1042B000F0E0808181608083E8EDF0E080818F779D
:1042C000808319BCA7EDB0E08C918E7F8C938081A8
:1042D0008F7E80831092910208950F931F93CF9346
:1042E000DF930E94C1210E94C921C8EDD0E08881DE
:1042F0008F77888388818068888388818F7D888391
:1043000019BC1092920210928E021092900210929A
:104310008F0200EE10E0F80180818B7F808388811E
:104320008160888342E060E080E00E94CF20E1EE7F
:10433000F0E080818E7F8083E2EEF0E0808181601A
:104340008083808188608083F80180818E7F808374
:10435000888180618883DF91CF911F910F910895AB
:10436000E8EDF0E080818F7E8083E7EDF0E08081F2
:104370008160808384E082BF81E0809391020C940D
:104380006D21E8EDF0E080818E7F80831092E20065
:1043900008951092DA001092E10008951F920F9292
:1043A0000FB60F9211242F933F934F935F936F9308
:1043B0007F938F939F93AF93BF93EF93FF938091DE
:1043C000E10082FF0BC08091E20082FF07C0809174
:1043D000E1008B7F8093E1000E949A1D8091DA00BA
:1043E00080FF19C08091D80080FF15C08091DA004D
:1043F0008E7F8093DA008091D90080FF96C080E1A3
:1044000089BD82E189BD09B400FEFDCF81E08093C2
:1044100092020E94751D8091E10080FF19C0809179
:10442000E20080FF15C08091E2008E7F8093E20061
:104430008091E20080618093E2008091D8008062E8
:104440008093D80019BC85E0809392020E94921D4F
:104450008091E10084FF2BC08091E20084FF27C09F
:1044600080E189BD82E189BD89B5982F917080FF77
:10447000FBCF8091D8008F7D8093D8008091E100A0
:104480008F7E8093E1008091E2008F7E8093E20036
:104490008091E20081608093E20080918E02882307
:1044A00009F449C084E0809392020E94961D809195
:1044B000E10083FF29C08091E20083FF25C0809145
:1044C000E100877F8093E10082E080939202109266
:1044D0008E028091E1008E7F8093E1008091E20066
:1044E0008E7F8093E2008091E20080618093E20001
:1044F00042E060E080E00E94CF208091F000886080
:104500008093F0000E948E1DFF91EF91BF91AF91BB
:104510009F918F917F916F915F914F913F912F91DB
:104520000F900FBE0F901F90189519BC1092920219
:104530000E94871D70CF8091E30087FD93E09093E8
:104540009202B3CF1F920F920FB60F9211242F93A6
:104550003F934F935F936F937F938F939F93AF930B
:10456000BF93CF93DF93EF93FF93D091E900DF7078
:104570008091EC00C82FC17080FDC0E81092E90066
:104580008091F000877F8093F00078940E94E6226B
:104590001092E9008091F00088608093F000CD2BAC
:1045A000CF70C093E900FF91EF91DF91CF91BF9160
:1045B000AF919F918F917F916F915F914F913F91BB
:1045C0002F910F900FBE0F901F9018951F93CF93B0
:1045D000DF93CDB7DEB7AA970FB6F894DEBF0FBE54
:1045E000CDBF83E992E02091F100FC012193CF013E
:1045F000F2E08B399F07B9F70E94EA1D8091E8002D
:1046000083FF1EC180919302909194029A3008F02A
:1046100017C1E92FF0E0EA5FFA4D0C945F2480386F
:1046200099F0823809F00CC1809197028F70873021
:1046300008F006C18093E9008091EB0085FB882794
:1046400080F91092E90006C080918F02909190024B
:10465000911182609091E800977F9093E800809399
:10466000F1001092F1008091E8008E77E5C0882378
:1046700009F4D3C0823009F0E3C080919502811122
:10468000D6C0809197028F702FEF280F263008F048
:10469000D7C08093E9002091EB0020FFC8C0933081
:1046A00031F48091EB0080628093EB00C0C0909168
:1046B000EB0090619093EB0021E030E001C0220F0D
:1046C0008A95EAF72093EA001092EA008091EB00C5
:1046D0008860EACF8111B4C0109195021F77809154
:1046E000E3008078812B8093E3008091E800877F4E
:1046F0008093E8000E9403218091E80080FFFCCFB6
:104700008091E30080688093E30082E0111183E0F0
:104710008093920295C08058823008F091C08091B9
:104720009502909196028C3D23E09207A1F583E0DB
:104730008A838AE289834FB7F894DE01139620E0DA
:104740003EE051E2E32FF0E050935700E49120FF68
:1047500003C0E295EF703F5FEF708E2F90E0EA307C
:10476000C0F0C7968D939D932F5F243159F74FBFAB
:104770008091E800877F8093E8006AE270E0CE01D4
:1047800001960E9412208091E8008B778093E800C8
:1047900057C0C096E7CF6091970270919802AE0122
:1047A0004F5F5F4F0E94541FBC01892B09F448C022
:1047B0009091E800977F9093E80089819A810E9408
:1047C0007020E1CF8038E1F58091E800877F809309
:1047D000E80080918E028093F10045CF811130C0B6
:1047E00090919502923060F58091E800877F8093E8
:1047F000E80090938E020E94032180918E0288230C
:1048000011F084E005C08091E30087FDFACF81E0DC
:10481000809392020E94DB1D13C08091950281302B
:1048200079F481E0933009F080E080939002109257
:10483000E9008091E800877F8093E8000E940321CF
:104840008091E80083FF0AC08091E800877F809311
:10485000E8008091EB0080628093EB00AA960FB68F
:10486000F894DEBF0FBECDBFDF91CF911F910895A9
:10487000CF93809192028823A1F0C091E900CF707C
:104880009091EC00892F817090FD80E8C82B1092E8
:10489000E9008091E80083FD0E94E622CF70C0937A
:1048A000E900CF910895991B79E004C0991F9617EC
:1048B00008F0961B881F7A95C9F780950895EE0F2A
:1048C000FF1F0590F491E02D0994F999FECF92BD58
:1048D00081BDF89A992780B50895A8E1B0E042E03B
:1048E00050E00C949924262FF999FECF92BD81BDFA
:1048F000F89A019700B4021639F01FBA20BD0FB61E
:10490000F894FA9AF99A0FBE08950396272F0E94F9
:1049100074240E947324252F0E947424242F0C9445
:1049200074240196272F0E9474240C947324DC01B4
:10493000CB01FC01F999FECF06C0F2BDE1BDF89AAA
:10494000319600B40D9241505040B8F70895F89454
:10495000FFCFB30BA00BBA0B3C0A770C770C9B0B69
:10496000770C770CE60B770CF60B5D0C770C770C5D
:10497000770C770C190C770C770C060C770CD10B95
:10498000770C770C750C750C750C750C750C750C1B
:10499000750C750C750C6F0C770CB30B940B770CB6
:1049A000770C770C770C770C770C770C770C770CEF
:1049B000770C6F0C770C770C9B0B770C730C730CCC
:1049C000730C730C730C730C730C730C730C6F0CF3
:1049D000F011F011481248129A121D121D121D12E8
:1049E000B612421351135113AD131D121D12B613FB
:1049F00027142714301430143214301430143014A7
:104A00002714271437143014301437140F23372386
:104A10002024372320246A238B232024E223EE231F
:104A20002A02F61C351DF91C311D2D1D01E200E97D
:104A300000EA00B500B600B700CD008301CC008AC3
:104A40000192019401210223022402250226022759
:104A5000022A02B300B4006F007000818283F06705
:104A600066323391929395949697343536F7F6F5EE
:104A7000F4F1E200E900EA00B500B600B700CD00AD
:104A80008301CC008A0192019401210223022402B5
:104A90002502260227022A02B300B4006F0070002C
:104AA000818283406D22A40837081508BA07D3070E
:024AB000EC0711
:00000001FF
